:020000040800F2
:100000000000022091530008AD500008B5500008D0
:10001000BD500008C5500008CD5000080000000089
:10002000000000000000000000000000D5500008A3
:10003000E350000800000000F1500008FF500008E5
:10004000E1530008E1530008E1530008E1530008C0
:10005000E1530008E1530008E1530008E1530008B0
:10006000E1530008E1530008E1530008E1530008A0
:10007000E1530008E1530008E1530008E153000890
:10008000E1530008E1530008E1530008E153000880
:10009000E1530008E1530008E1530008E153000870
:1000A000E1530008E1530008E1530008E153000860
:1000B0000D510008E153000821510008E1530008E8
:1000C000E1530008E1530008E1530008E153000840
:1000D000E1530008E1530008E1530008E153000830
:1000E000E1530008E1530008E1530008E153000820
:1000F000E1530008E1530008E1530008E153000810
:10010000E1530008E1530008E1530008E1530008FF
:10011000E1530008E1530008E1530008E1530008EF
:10012000E1530008E1530008E1530008E1530008DF
:10013000E1530008E1530008E1530008E1530008CF
:10014000E1530008E1530008E1530008E1530008BF
:10015000E1530008E1530008E1530008E1530008AF
:10016000E1530008E1530008E1530008E15300089F
:10017000E1530008E1530008E153000800000000CB
:08018000E1530008E1530008FF
:1001880010B5054C237833B9044B13B10448AFF3C9
:1001980000800123237010BD2C0000200000000007
:1001A800B89E000808B5034B1BB103490348AFF3D9
:1001B800008008BD0000000030000020B89E000844
:1001C80081F0004102E000BF83F0004330B54FEA00
:1001D80041044FEA430594EA050F08BF90EA020F6D
:1001E8001FBF54EA000C55EA020C7FEA645C7FEA00
:1001F800655C00F0E2804FEA5454D4EB5555B8BF23
:100208006D420CDD2C4480EA020281EA030382EA93
:10021800000083EA010180EA020281EA0303362D25
:1002280088BF30BD11F0004F4FEA01314FF4801CF8
:100238004CEA113102D0404261EB410113F0004F0A
:100248004FEA03334CEA133302D0524263EB4303C1
:1002580094EA050F00F0A780A4F10104D5F1200E5F
:100268000DDB02FA0EFC22FA05F2801841F10001BA
:1002780003FA0EF2801843FA05F359410EE0A5F18E
:1002880020050EF1200E012A03FA0EFC28BF4CF0BF
:10029800020C43FA05F3C01851EBE37101F0004575
:1002A80007D54FF0000EDCF1000C7EEB00006EEB82
:1002B8000101B1F5801F1BD3B1F5001F0CD349080C
:1002C8005FEA30004FEA3C0C04F101044FEA445263
:1002D80012F5800F80F09A80BCF1004F08BF5FEAEA
:1002E800500C50F1000041EB045141EA050130BDCA
:1002F8005FEA4C0C404141EB0101013C28BFB1F5DC
:10030800801FE9D291F0000F04BF01460020B1FA26
:1003180081F308BF2033A3F10B03B3F120020CDAF9
:100328000C3208DD02F1140CC2F10C0201FA0CF0D7
:1003380021FA02F10CE002F11402D8BFC2F1200C3C
:1003480001FA02F120FA0CFCDCBF41EA0C019040F2
:10035800E41AA2BF01EB0451294330BD6FEA04043B
:100368001F3C1CDA0C340EDC04F11404C4F1200226
:1003780020FA04F001FA02F340EA030021FA04F338
:1003880045EA030130BDC4F10C04C4F1200220FA8F
:1003980002F001FA04F340EA0300294630BD21FACD
:1003A80004F0294630BD94F0000F83F4801306BF93
:1003B80081F480110134013D4EE77FEA645C18BF87
:1003C8007FEA655C29D094EA050F08BF90EA020F1E
:1003D80005D054EA000C04BF1946104630BD91EA16
:1003E800030F1EBF0021002030BD5FEA545C05D119
:1003F8004000494128BF41F0004130BD14F5800458
:100408003CBF01F5801130BD01F0004545F0FE41CB
:1004180041F470014FF0000030BD7FEA645C1ABF00
:10042800194610467FEA655C1CBF0B46024650EA37
:10043800013406BF52EA033591EA030F41F4002163
:1004480030BD00BF90F0000F04BF0021704730B5E9
:100458004FF4806404F132044FF000054FF00001BE
:1004680050E700BF90F0000F04BF0021704730B57F
:100478004FF4806404F1320410F0004548BF404254
:100488004FF000013EE700BF42004FEAE2014FEAA9
:1004980031014FEA02701FBF12F07F4393F07F4F84
:1004A80081F06051704732F07F4208BF704793F087
:1004B8007F4F04BF41F40021704730B54FF460749A
:1004C80001F0004521F000411CE700BF50EA01029D
:1004D80008BF704730B54FF000050AE050EA010246
:1004E80008BF704730B511F0004502D5404261EBB6
:1004F80041014FF4806404F132045FEA915C3FF4F7
:10050800D8AE4FF003025FEADC0C18BF03325FEA93
:10051800DC0C18BF033202EBDC02C2F1200300FA44
:1005280003FC20FA02F001FA03FE40EA0E0021FA69
:1005380002F11444BDE600BF70B54FF0FF0C4CF457
:10054800E06C1CEA11541DBF1CEA135594EA0C0F09
:1005580095EA0C0F00F0DEF82C4481EA030621EA44
:100568004C5123EA4C5350EA013518BF52EA03357F
:1005780041F4801143F4801338D0A0FB02CE4FF031
:100588000005E1FB02E506F00042E0FB03E54FF061
:100598000006E1FB03569CF0000F18BF4EF0010E59
:1005A800A4F1FF04B6F5007F64F5407404D25FEA55
:1005B8004E0E6D4146EB060642EAC62141EA555108
:1005C8004FEAC52040EA5E504FEACE2EB4F1FD0C4A
:1005D80088BFBCF5E06F1ED8BEF1004F08BF5FEAC8
:1005E800500E50F1000041EB045170BD06F000467A
:1005F80046EA010140EA020081EA0301B4EB5C0427
:10060800C2BFD4EB0C0541EA045170BD41F480111E
:100618004FF0000E013C00F3AB8014F1360FDEBF43
:10062800002001F0004170BDC4F10004203C35DA1F
:100638000C341BDC04F11404C4F1200500FA05F3A2
:1006480020FA04F001FA05F240EA020001F0004243
:1006580021F0004110EBD37021FA04F642EB0601B9
:100668005EEA430E08BF20EAD37070BDC4F10C04E3
:10067800C4F1200500FA04F320FA05F001FA04F2A7
:1006880040EA020001F0004110EBD37041F1000193
:100698005EEA430E08BF20EAD37070BDC4F120059E
:1006A80000FA05F24EEA020E20FA04F301FA05F206
:1006B80043EA020321FA04F001F0004121FA04F2AE
:1006C80020EA020000EBD3705EEA430E08BF20EA7E
:1006D800D37070BD94F0000F0FD101F000464000B8
:1006E80041EB010111F4801F08BF013CF7D041EA3A
:1006F800060195F0000F18BF704703F0004652003E
:1007080043EB030313F4801F08BF013DF7D043EA0E
:100718000603704794EA0C0F0CEA135518BF95EAC4
:100728000C0F0CD050EA410618BF52EA4306D1D14B
:1007380081EA030101F000414FF0000070BD50EA6A
:10074800410606BF1046194652EA430619D094EAF4
:100758000C0F02D150EA013613D195EA0C0F05D1DE
:1007680052EA03361CBF104619460AD181EA030132
:1007780001F0004141F0FE4141F470014FF00000EA
:1007880070BD41F0FE4141F4780170BD70B54FF085
:10079800FF0C4CF4E06C1CEA11541DBF1CEA135505
:1007A80094EA0C0F95EA0C0F00F0A7F8A4EB0504E7
:1007B80081EA030E52EA03354FEA013100F08880DE
:1007C8004FEA03334FF0805545EA131343EA1263A7
:1007D8004FEA022245EA111545EA10654FEA00265C
:1007E8000EF000419D4208BF964244F1FD0404F515
:1007F800407402D25B084FEA3202B61A65EB030571
:100808005B084FEA32024FF480104FF4002CB6EB2D
:10081800020E75EB030E22BFB61A754640EA0C00AD
:100828005B084FEA3202B6EB020E75EB030E22BFED
:10083800B61A754640EA5C005B084FEA3202B6EB2E
:10084800020E75EB030E22BFB61A754640EA9C00ED
:100858005B084FEA3202B6EB020E75EB030E22BFBD
:10086800B61A754640EADC0055EA060E18D04FEA7B
:10087800051545EA16754FEA06164FEAC30343EA1B
:1008880052734FEAC2025FEA1C1CC0D111F4801FE8
:100898000BD141EA00014FF000004FF0004CB6E7E1
:1008A80011F4801F04BF01430020B4F1FD0C88BF80
:1008B800BCF5E06F3FF6AFAEB5EB030C04BFB6EB8B
:1008C800020C5FEA500C50F1000041EB045170BD7E
:1008D8000EF0004E4EEA113114EB5C04C2BFD4EBAB
:1008E8000C0541EA045170BD41F480114FF0000E2F
:1008F800013C90E645EA060E8DE60CEA135594EAAB
:100908000C0F08BF95EA0C0F3FF43BAF94EA0C0FAD
:100918000AD150EA01347FF434AF95EA0C0F7FF422
:1009280025AF104619462CE795EA0C0F06D152EA76
:1009380003353FF4FDAE1046194622E750EA41065A
:1009480018BF52EA43067FF4C5AE50EA41047FF46B
:100958000DAF52EA43057FF4EBAE12E74FF0FF3CD0
:1009680006E000BF4FF0010C02E000BF4FF0010CA1
:100978004DF804CD4FEA410C7FEA6C5C4FEA430C1A
:1009880018BF7FEA6C5C1BD001B050EA410C0CBF69
:1009980052EA430C91EA030F02BF90EA020F0020CB
:1009A800704710F1000F91EA030F58BF994208BF32
:1009B80090422CBFD8176FEAE37040F001007047EF
:1009C8004FEA410C7FEA6C5C02D150EA013C07D146
:1009D8004FEA430C7FEA6C5CD6D152EA033CD3D091
:1009E8005DF8040B704700BF8446104662468C468B
:1009F8001946634600E000BF01B5FFF7B7FF0028BE
:100A080048BF10F1000F01BD4DF808EDFFF7F4FFE6
:100A18000CBF012000205DF808FB00BF4DF808ED71
:100A2800FFF7EAFF34BF012000205DF808FB00BF94
:100A38004DF808EDFFF7E0FF94BF012000205DF8B6
:100A480008FB00BF4DF808EDFFF7CEFF94BF01206B
:100A580000205DF808FB00BF4DF808EDFFF7C4FF64
:100A680034BF012000205DF808FB00BF4FEA4102B7
:100A780012F5001215D211D56FF47873B3EB6252E8
:100A880012D94FEAC12343F0004343EA505311F00F
:100A9800004F23FA02F018BF404270474FF00000A1
:100AA800704750EA013005D111F0004008BF6FF0DF
:100AB800004070474FF00000704700BF4A0011D255
:100AC80012F5001211D20DD56FF47873B3EB6252A0
:100AD8000ED44FEAC12343F0004343EA505323FAAC
:100AE80002F070474FF00000704750EA013002D121
:100AF8004FF0FF3070474FF0000070474FEA410257
:100B0800B2F1E04324BFB3F5001CDCF1FE5C0DD963
:100B180001F0004C4FEAC0024CEA5070B2F1004FAD
:100B280040EB830008BF20F00100704711F0804FB0
:100B380021D113F13872BCBF01F00040704741F475
:100B480080114FEA5252C2F11802C2F1200C10FA79
:100B58000CF320FA02F018BF40F001004FEAC1235D
:100B68004FEAD32303FA0CFC40EA0C0023FA02F301
:100B78004FEA4303CCE77FEA625307D150EA0133D7
:100B88001EBF4FF0FE4040F44000704701F00040A7
:100B980040F0FE4040F40000704700BF53B94AB926
:100BA800002908BF00281CBF4FF0FF314FF0FF306D
:100BB80000F06AB9ADF1080C6DE904CE00F006F852
:100BC800DDF804E0DDE9022304B070472DE9F047C1
:100BD800089D0C46002B4ED194468C458646B2FAA9
:100BE80082F262D94AB1C2F12003914020FA03F39C
:100BF8000CFA02FC194300FA02FE4FEA1C471FFADE
:100C08008CF6B1FBF7F44FEA1E4307FB141143EAD5
:100C1800014304FB06F199420AD91CEB030304F1D2
:100C2800FF3080F01281994240F20F81023C634408
:100C3800591A1FFA8EF3B1FBF7F007FB101143EABC
:100C4800014300FB06F69E420AD91CEB030300F1A0
:100C5800FF3180F0FC809E4240F2F9806344023804
:100C68009B1B40EA044000211DB1D3400022C5E986
:100C78000032BDE8F0878B4205D90DB1C5E9000106
:100C880000210846F5E7B3FA83F1002946D1A342CB
:100C980002D39042C0F0F080861A64EB030301206F
:100CA800002DE6D0C5E90063E3E7002A40F0908014
:100CB800A1EB0C044FEA1C481FFA8CF70121B4FB86
:100CC800F8F64FEA1E4308FB164443EA044307FBC1
:100CD80006F0984208D91CEB030306F1FF3402D250
:100CE800984200F2CD8026461C1A1FFA8EF3B4FBF8
:100CF800F8F008FB104443EA044300FB07F79F425F
:100D080008D91CEB030300F1FF3402D29F4200F222
:100D1800B0802046DB1B40EA0640A5E7C1F120066B
:100D28008B4022FA06F71F4320FA06FC04FA01F367
:100D380043EA0C03F44000FA01F8380C4FEA13496F
:100D4800B4FBF0FE1FFA87FC00FB1E4449EA04448A
:100D58000EFB0CF9A14502FA01F20AD93C190EF171
:100D6800FF3A80F08480A14540F28180AEF1020E06
:100D78003C44A4EB09041FFA83F9B4FBF0F300FB2D
:100D8800134449EA044403FB0CFCA44507D93C1965
:100D980003F1FF3067D2A44565D9023B3C4443EADE
:100DA8000E40A0FB0293A4EB0C049C42CE469C464A
:100DB80051D34ED055B1B8EB0E0364EB0C0404FAD2
:100DC80006F6CB401E43CC40C5E90064002150E73D
:100DD800C2F1200320FA03F10CFA02FC24FA03F30F
:100DE80094400C434FEA1C4800FA02FE1FFA8CF7A5
:100DF800B3FBF8F008FB1031230C43EA014300FB76
:100E080007F1994208D91CEB030300F1FF362CD2F5
:100E180099422AD9023863445B1AA4B2B3FBF8F1A9
:100E280008FB113344EA034401FB07F3A34208D942
:100E38001CEB040401F1FF3613D2A34211D9023985
:100E48006444E41A41EA004139E70446F0E60846FA
:100E580006E7C845AED2B9EB020E63EB070C0138C2
:100E6800A8E73146EDE7034699E73046D4E7D6468A
:100E78007FE7634402384DE70646234608460FE7F6
:100E8800023E634430E700BF704700BF80B500AF43
:100E980001220821024804F0E5FD00BF80BD00BF23
:100EA800000C024080B584B000AF002208212F4812
:100EB80004F0D8FD012208212C4804F0D3FD0A23B0
:100EC80002222B492B4806F0A3FD0023FB604FF4B8
:100ED80000437B8100237B603FE07B68002B06DBBF
:100EE8007B68032B03DC7B680433FB6018E07B68BA
:100EF800032B07DD7B68072B04DC7B68C3F1070342
:100F0800FB600DE07B68072B06DD7B680B2B03DCA1
:100F18007B680433FB6003E07B68C3F11703FB6065
:100F2800134B1A887B8913409BB2002B05D0124AB9
:100F3800FB68002122F8131009E00F4AFB6832F819
:100F48001330013399B20C4AFB6822F813107B89DD
:100F58005B087B817B6801337B607B680F2BBCDD82
:100F680000BF00BF1037BD4680BD00BF000C024067
:100F780068000020580100204800002080B500AF1C
:100F880000BF32230322D021084805F00FFA034698
:100F9800002BF6D1002000F095F9002000F0C6F9EA
:100FA80000F0F8F900F01CFA00BF80BDD400002062
:100FB80080B588B004AF03460A46FB711346BB717F
:100FC800BB79184604F0BCF90346FB73FB799AB267
:100FD8000A2302930123019307F10F0300930123CE
:100FE800D021034804F0B6FE00BF1037BD4680BDCF
:100FF800D400002080B584B004AF0A2302930723ED
:101008000193314B009301230022D0212F4804F093
:101018009BFF2D4B1B78184604F078F903461A46B7
:101028002B4B1A70284B5B78184604F06FF903466F
:101038001A46274B5A70244B9B7803F03F03DBB2C8
:10104800184604F063F903461A46214B9A701E4B62
:10105800DB78184604F05AF903461A461C4BDA7036
:10106800194B1B79184604F051F903461A46184BD8
:101078001A71154B5B7903F01F03DBB2184604F0B5
:1010880045F903461A46124B5A710F4B9B7918467D
:1010980004F03CF903461A460B4B5B79DB09DBB2DB
:1010A800194689000B4419468800194603460B4423
:1010B8009B009BB213449BB203F5FA639AB2044BAC
:1010C800DA8000BFBD4680BD78000020D400002033
:1010D8006C00002080B582B000AF0346FB71FB793D
:1010E80019460020FFF764FF00BF0837BD4680BDE2
:1010F80080B582B000AF0346FB71FB791946012029
:10110800FFF756FF00BF0837BD4680BD80B588B0E1
:1011180004AF0346FB71FB79184604F011F9034646
:1011280003F03F03DBB2FB730A230293012301930D
:1011380007F10F03009301230222D021034804F092
:1011480009FE00BF1037BD4680BD00BFD400002097
:1011580080B582B000AF0346FB71FB7919460320C6
:10116800FFF726FF00BF0837BD4680BD80B582B0B7
:1011780000AF0346FB71FB7919460420FFF718FFFF
:1011880000BF0837BD4680BD80B588B004AF0346B0
:10119800FB710A2302930123019307F10F030093C4
:1011A80001230522D021144804F0CEFEFB7B23F056
:1011B8007F03DBB2FB73FB79184604F0C1F80346E2
:1011C8005BB203F01F035AB2FB7B5BB213435BB203
:1011D800DBB2BB730A2302930123019307F10E03C9
:1011E800009301230522D021034804F0B3FD00BF7A
:1011F8001037BD4680BD00BFD400002080B588B040
:1012080004AF0346FB80FB882B4AA2FB031252095A
:10121800642101FB02F29B1A9BB2DBB2184604F070
:101228008FF80346BB73FB88234AA2FB03235B09A1
:101238009AB2224BA3FB021319090B469B000B44DD
:101248009B00D31A9BB2FB730A23029301230193D9
:1012580007F10D03009301230522D021184804F05B
:1012680073FE7B7B5BB203F01F035AB2FB7BDB018F
:101278005BB213435BB2DBB27B730A230293012395
:10128800019307F10D03009301230522D0210C4897
:1012980004F060FD0A2302930123019307F10E0372
:1012A800009301230622D021054804F053FD00BF16
:1012B8001037BD4680BD00BF1F85EB51CDCCCCCCCF
:1012C800D400002080B588B004AF0346FB710A2320
:1012D80002930123019307F10F03009301230E22C8
:1012E800D021114804F030FEFB7B5BB223F00103F0
:1012F8005AB297F9073003F001035BB213435BB2AC
:10130800DBB2FB730A2302930123019307F10F0356
:10131800009301230E22D021034804F01BFD00BFD7
:101328001037BD4680BD00BFD400002080B588B00E
:1013380004AF0346FB710A2302930123019307F1CB
:101348000F03009301230E22D021114804F0FCFD65
:10135800FB7B5BB223F002035AB2FB795B005BB202
:1013680003F002035BB213435BB2DBB2FB730A23E5
:1013780002930123019307F10F03009301230E2227
:10138800D021034804F0E6FC00BF1037BD4680BDFD
:10139800D400002080B586B004AF0A23029301234D
:1013A8000193FB1D009301230F22D0210B4804F069
:1013B800CBFDFB7923F00103DBB2FB710A23029317
:1013C80001230193FB1D009301230F22D021034821
:1013D80004F0C0FC00BF0837BD4680BDD400002023
:1013E80080B586B004AF0A23029301230193FB1D45
:1013F800009301230F22D0210B4804F0A5FDFB79AF
:1014080023F00203DBB2FB710A2302930123019349
:10141800FB1D009301230F22D021034804F09AFCFE
:1014280000BF0837BD4680BDD400002080B58EB00F
:1014380000AF07F11C0300221A605A609A60DA6054
:101448001A615A619A613B4600221A605A609A6092
:10145800DA601A615A619A612F4B4FF020421A6084
:101468002D4B2E4A5A602C4B00229A602A4B0022A0
:10147800DA60294B00221A61274B10225A61264B49
:1014880000229A61244B0022DA61234B00221A625F
:10149800214B00225A62204B4FF480529A621E4B15
:1014A8000022DA621C4B4FF480421A631A4B002266
:1014B8005A63194B00229A63174B00225A640F2370
:1014C800FB610F233B623C237B620023BB6210233A
:1014D800FB6211233B6300237B6308233B600F23DC
:1014E8007B600923BB600023FB6010233B61112351
:1014F8007B610023BB613A4607F11C031946064885
:1015080006F090FE0346002B01D003F057FC00BF05
:101518003837BD4680BD00BF80000020040100A010
:1015280080B586B000AF3B1D00221A605A609A60F1
:10153800DA601A611C4B1B68002B31D11A4B01224F
:101548001A6000233B60194B9B6B184A43F0010358
:101558009363164B9B6B03F001033B603B684FF6AC
:1015680088737B600223BB600023FB6003233B611D
:101578000C237B613B1D19460D4804F0D7F84CF24B
:10158800B3737B600223BB600023FB6003233B61D2
:101598000C237B613B1D1946064804F0C7F800E0A0
:1015A80000BF1837BD4680BDD0000020003802407B
:1015B80000100240000C024080B582B000AF786095
:1015C800FFF7AEFF00BF0837BD4680BD80B58CB0C1
:1015D80000AF07F11C0300221A605A609A60DA60B3
:1015E8001A610023BB616F4B1B6B6E4A43F01003FB
:1015F80013636C4B1B6B03F01003BB61BB690023C7
:101608007B61684B1B6B674A43F004031363654BAC
:101618001B6B03F004037B617B6900233B61614B17
:101628001B6B604A43F0800313635E4B1B6B03F034
:1016380080033B613B690023FB605A4B1B6B594A93
:1016480043F001031363574B1B6B03F00103FB606B
:10165800FB680023BB60534B1B6B524A43F00803E3
:101668001363504B1B6B03F00803BB60BB6800237C
:101678007B604C4B1B6B4B4A43F040031363494B55
:101688001B6B03F040037B607B6800233B60454B8A
:101698001B6B444A43F002031363424B1B6B03F07A
:1016A80002033B603B68002270213F4804F0DAF9EE
:1016B80000224FF400513D4804F0D4F900224021A3
:1016C8003B4804F0CFF900224FF48071394804F008
:1016D800C9F900220821384804F0C4F97023FB61D5
:1016E80001233B6200237B620023BB6207F11C03DA
:1016F80019462D4804F01AF84FF40053FB610123F2
:101708003B6200237B620023BB6207F11C0319467E
:10171800264804F00BF8C023FB6100233B6200233A
:101728007B6207F11C031946224803F0FFFF3023B0
:10173800FB6100233B6200237B6207F11C0319460F
:101748001A4803F0F3FF4023FB6101233B620023A7
:101758007B620023BB6207F11C031946144803F09F
:10176800E5FF4FF48073FB6101233B6200237B623A
:101778000023BB6207F11C0319460E4803F0D6FF8D
:101788000823FB6101233B6200237B620023BB62C9
:1017980007F11C031946084803F0C8FF00BF30379B
:1017A800BD4680BD003802400010024000080240DB
:1017B8000018024000000240000C024080B500AF53
:1017C800124B134A1A60114B124A5A600F4B0022EF
:1017D8009A600E4B0022DA600C4B4FF480421A617B
:1017E8000A4B00225A61094B00229A61074B0022DA
:1017F800DA61064B00221A62044804F067F90346CE
:10180800002B01D003F0DAFA00BF80BDD40000201D
:1018180000540040A086010080B58AB000AF78600F
:1018280007F1140300221A605A609A60DA601A619C
:101838007B681B68194A93422BD100233B61184BE4
:101848001B6B174A43F002031363154B1B6B03F022
:1018580002033B613B69C0237B611223BB61002308
:10186800FB6103233B6204237B6207F114031946DF
:101878000C4803F05BFF0023FB60094B1B6C084A14
:1018880043F400131364064B1B6C03F40013FB6052
:10189800FB6800BF2837BD4680BD00BF005400402C
:1018A800003802400004024080B483B000AF034611
:1018B800FB80044AFB88138000BF0C37BD465DF8E7
:1018C800047B7047FEFF0F6080B483B000AF03460F
:1018D800FB80044AFB88538000BF0C37BD465DF887
:1018E800047B7047FEFF0F6080B483B000AF064BE7
:1018F8005B889BB2FB80FB889BB218460C37BD46C1
:101908005DF8047B704700BFFEFF0F6090B583B0A1
:1019180000AF0446084611461A462346FB80034694
:10192800BB800B467B8013463B802A20FFF7BCFF19
:10193800FB881B0A9BB21846FFF7C6FFFB88DBB281
:101948009BB21846FFF7C0FF7B881B0A9BB218465C
:10195800FFF7BAFF7B88DBB29BB21846FFF7B4FFEC
:101968002B20FFF7A1FFBB881B0A9BB21846FFF785
:10197800ABFFBB88DBB29BB21846FFF7A5FF3B88DD
:101988001B0A9BB21846FFF79FFF3B88DBB29BB24E
:101998001846FFF799FF2C20FFF786FF00BF0C378A
:1019A800BD4690BD80B584B000AF0346FB80154BA3
:1019B8001B88013B9AB2134B5B88013B9BB2002109
:1019C8000020FFF7A3FF0023FB8111E00023BB8168
:1019D80006E0FB881846FFF777FFBB890133BB8118
:1019E800084B5B88BA899A42F3D3FB890133FB81A0
:1019F800044B1B88FA899A42E8D300BF00BF10370E
:101A0800BD4680BD2801002080B582B000AF0346E6
:101A1800FB800B46BB8013467B80BB88FA88B9885D
:101A2800F888FFF773FF7B881846FFF74DFF00BF64
:101A38000837BD4680BD90B58DB000AF0446084656
:101A480011461A462346FB800346BB800B467B8023
:101A580013463B800023BB6200237B627A88FB88A5
:101A6800D31A3B623A88BB88D31AFB61FB88FB60B8
:101A7800BB88BB603B6A002B02DD01237B610BE066
:101A88003B6A002B02D100237B6105E04FF0FF3356
:101A98007B613B6A5B423B62FB69002B02DD0123F1
:101AA8003B610BE0FB69002B02D100233B6105E0A1
:101AB8004FF0FF333B61FB695B42FB613A6AFB69AC
:101AC8009A4202DD3B6ABB6101E0FB69BB6100230E
:101AD800FB852BE0FB689BB2BA6891B2B7F840204F
:101AE8001846FFF791FFBA6A3B6A1344BB627A6AE9
:101AF800FB6913447B62BA6ABB699A4207DDBA6A1A
:101B0800BB69D31ABB62FA687B691344FB607A6AC3
:101B1800BB699A4207DD7A6ABB69D31A7B62BA68E5
:101B28003B691344BB60FB8D0133FB85FB8DBA69B0
:101B38009A42CFDA00BF00BF3437BD4690BD0000DF
:101B480090B587B000AF0446084611461A462346AA
:101B5800FB800346BB800B46FB7013463B8000238B
:101B68007B75FB883B8297F82C305B08FB73FB7B0B
:101B7800DB08DBB21A46FB7B03F00703DBB2002B62
:101B880014BF01230023DBB213449AB297F82C3018
:101B98009BB212FB03F3BB81FB78203BFB70FB7B02
:101BA8009AB2FB8813449BB2013B9CB297F82C3045
:101BB8009AB2BB8813449BB2013B9BB2B988F888A0
:101BC8002246FFF7A3FE00237B827AE097F82C30A9
:101BD8000C2B28D097F82C30102B08D1FA787B8A58
:101BE8003C4912010A4413441B78FB751BE097F823
:101BF8002C30182B0BD1FA78798A374813465B00BA
:101C080013441B0103440B441B78FB750BE097F846
:101C18002C30202B5AD1FA787B8A304992010A4419
:101C280013441B78FB750023BB7544E097F83030EC
:101C3800002B20D1FA7DBB7D42FA03F303F00103A8
:101C4800002B04D03B881846FFF73EFE03E03B8D8F
:101C58001846FFF739FE7B7D01337B757B7DFA7B68
:101C6800B3FBF2F101FB02F29B1ADBB2002B1FD18E
:101C780000237B7522E0FA7DBB7D42FA03F303F073
:101C88000103002B05D03A88B988FB881846FFF76E
:101C9800BBFEFB880133FB80FA883B8AD21AFB7BA8
:101CA8009A4205D13B8AFB80BB880133BB8005E0A3
:101CB800BB7D0133BB75BB7D072BB7D97B8A01334D
:101CC8007B827A8ABB899A4280D300E000BF1C37A6
:101CD800BD4690BD289F000818A50008E8B6000872
:101CE80080B485B000AF03460A46FB711346BB714A
:101CF8000123FB6004E0FA79FB6802FB03F3FB6055
:101D0800BB795A1EBA71002BF5D1FB6818461437F7
:101D1800BD465DF8047B704790B58BB004AF0446B0
:101D2800084611461A462346FB800346BB800B46ED
:101D38007B8013467B700023BB7597F830305B08B7
:101D48007B757B789AB27B7D9BB212FB03F37B8217
:101D58007B8A5B089BB2FA88D31A3B8297F83030AB
:101D68005B08DBB21A46BB889B1AFB810023FB7514
:101D78005BE07C887A78FB7DD31ADBB2013BDBB26F
:101D880019460A20FFF7ACFF0346B4FBF3F12B4BCF
:101D9800A3FB0123DA0813469B0013445B00CA1A0D
:101DA80013467B73BB7D002B22D1FA7D7B78013BE8
:101DB8009A421DDA7B7B002B18D1FB7D9AB27B7D82
:101DC8009BB212FB03F39AB23B8A134498B23A8D42
:101DD800F98997F83430029397F830300193BB8D26
:101DE800009313463022FFF7ABFE1BE00123BB75BF
:101DF800FB7D9AB27B7D9BB212FB03F39AB23B8ABE
:101E0800134498B27B7B3033DAB23C8DF98997F86A
:101E18003430029397F830300193BB8D00932346FA
:101E2800FFF78EFEFB7D0133FB75FA7D7B789A42C6
:101E38009FD300BF00BF1C37BD4690BDCDCCCCCCD6
:101E480080B483B000AF0346FB71FB791B09DBB29A
:101E580003F00303DBB2002B07D00A4B4FF4A07248
:101E68001A80084BF0225A8006E0064BF0221A80AE
:101E7800044B4FF4A0725A8000BF0C37BD465DF882
:101E8800047B70472801002080B500AF00224FF482
:101E98000051AA4803F0E6FD4FF4FA7003F010FB76
:101EA80001224FF40051A54803F0DCFD4FF4FA700D
:101EB80003F006FB0020FFF7C3FFD320FFF7F4FC75
:101EC800FFF712FD03461A469D4B9A80FFF70CFD5B
:101ED80003461A469A4B9A80FFF706FD03461A46B0
:101EE800974B9A80964B9B881B029AB2944B9A8088
:101EF800FFF7FAFC03461A46914B9B8813439AB2A4
:101F08008F4B9A80CF20FFF7CFFC0020FFF7DCFC37
:101F1800C120FFF7D9FC3020FFF7D6FCED20FFF7F2
:101F2800C3FC6420FFF7D0FC0320FFF7CDFC122090
:101F3800FFF7CAFC8120FFF7C7FCE820FFF7B4FCD5
:101F48008520FFF7C1FC1020FFF7BEFC7A20FFF7C1
:101F5800BBFCCB20FFF7A8FC3920FFF7B5FC2C20F1
:101F6800FFF7B2FC0020FFF7AFFC3420FFF7ACFC12
:101F78000220FFF7A9FCF720FFF796FC2020FFF7C7
:101F8800A3FCEA20FFF790FC0020FFF79DFC00204F
:101F9800FFF79AFCC020FFF787FC1B20FFF794FC93
:101FA800C120FFF781FC0120FFF78EFCC520FFF759
:101FB8007BFC3020FFF788FC3020FFF785FCC7202A
:101FC800FFF772FCB720FFF77FFC3620FFF76CFCA9
:101FD8000820FFF779FC3A20FFF766FC5520FFF749
:101FE80073FCB120FFF760FC0020FFF76DFC1A209E
:101FF800FFF76AFCB620FFF757FC0A20FFF764FCDE
:10200800A220FFF761FCF220FFF74EFC0020FFF74B
:102018005BFC2620FFF748FC0120FFF755FCE02079
:10202800FFF742FC0F20FFF74FFC2A20FFF74CFC7C
:102038002820FFF749FC0820FFF746FC0E20FFF791
:1020480043FC0820FFF740FC5420FFF73DFCA92083
:10205800FFF73AFC4320FFF737FC0A20FFF734FC70
:102068000F20FFF731FC0020FFF72EFC0020FFF7C0
:102078002BFC0020FFF728FC0020FFF725FCE120BF
:10208800FFF712FC0020FFF71FFC1520FFF71CFCD0
:102098001720FFF719FC0720FFF716FC1120FFF7A0
:1020A80013FC0620FFF710FC2B20FFF70DFC562031
:1020B800FFF70AFC3C20FFF707FC0520FFF704FCAC
:1020C8001020FFF701FC0F20FFF7FEFB3F20FFF772
:1020D800FBFB3F20FFF7F8FB0F20FFF7F5FB2B205A
:1020E800FFF7E2FB0020FFF7EFFB0020FFF7ECFB18
:1020F8000120FFF7E9FB3F20FFF7E6FB2A20FFF767
:10210800D3FB0020FFF7E0FB0020FFF7DDFB0020FA
:10211800FFF7DAFBEF20FFF7D7FB1120FFF7C4FB2F
:10212800782003F0CDF92920FFF7BEFB01224FF4F8
:102138008071044803F096FC00BF80BD000802408F
:10214800280100200000024080B584B000AFF8608C
:10215800B9607A603B60FB689AB27B689BB21344B3
:1021680098B2BB689AB23B689BB213449BB23A8B55
:102178001946FFF749FCFB689AB27B689BB2D31AF1
:1021880098B2BB689AB23B689BB213449BB23A8B35
:102198001946FFF739FCFB689AB27B689BB2134477
:1021A80098B2BB689AB23B689BB2D31A9BB23A8B7F
:1021B8001946FFF729FCFB689AB27B689BB2D31AD1
:1021C80098B2BB689AB23B689BB2D31A9BB23A8B5F
:1021D8001946FFF719FCFB689AB23B689BB2134497
:1021E80098B2BB689AB27B689BB213449BB23A8B95
:1021F8001946FFF709FCFB689AB23B689BB2D31AF1
:1022080098B2BB689AB27B689BB213449BB23A8B74
:102218001946FFF7F9FBFB689AB23B689BB2134477
:1022280098B2BB689AB27B689BB2D31A9BB23A8BBE
:102238001946FFF7E9FBFB689AB23B689BB2D31AD1
:1022480098B2BB689AB27B689BB2D31A9BB23A8B9E
:102258001946FFF7D9FB00BF1037BD4680BD80B5D2
:102268008AB002AFF860B9603B601346FB80002378
:10227800FB613B68BB613B685B00C3F103033B61E7
:10228800BB6A002B4FD029E0FB697B610AE0FB8821
:1022980000937B69FA69B968F868FFF755FF7B69AD
:1022A80001337B617A69BB699A42F0DD3B69002B97
:1022B80006DAFB699A003B69134406333B610AE07E
:1022C800FA69BB69D31A9A003B6913440A333B6124
:1022D800BB69013BBB61FB690133FB61FA69BB69FF
:1022E8009A42D1DD23E0FB880093BB69FA69B9689B
:1022F800F868FFF729FF3B69002B06DAFB699A00AB
:102308003B69134406333B610AE0FA69BB69D31A97
:102318009A003B6913440A333B61BB69013BBB61CB
:10232800FB690133FB61FA69BB699A42DBDD00BFD7
:102338002037BD4680BD000090B58BB004AFBA60B1
:102348001A460346FB810B46BB811346FB80FB897B
:10235800BB820023FB7548E0FB7D002B45D1FA8941
:10236800264B1B88194697F82C305B08DBB2CB1A32
:102378009A423FDCBA89214B5B88194697F82C3082
:10238800CB1A9A4236DCBB681B78802B02D9012312
:10239800FB752AE0BB681B780D2B0BD197F82C3006
:1023A8009AB2BB891344BB81BB8AFB81BB680133EA
:1023B800BB6017E0BB681A78FC88B989F88997F878
:1023C8003030029397F82C3001933B8D00932346CD
:1023D800FFF7B6FB97F82C305B08DBB21A46FB898F
:1023E8001344FB81BB680133BB60BB681B78002BBF
:1023F800B2D100E000BF1C37BD4690BD28010020C7
:1024080080B58CB004AFBA601A460346FB810B4610
:10241800BB811346FB8097F82C305B08FB750023C3
:10242800FB83BB68BB6110E0BB691B78802B06D9B6
:10243800FB8B0233FB83BB690133BB6102E0FB8B7F
:102448000133FB83BB690133BB61BB691B78002B7C
:10245800EAD1FB7D9BB2FA8B12FB03F3BB82BB8AEA
:102468005B089BB2FA89D31A7B8297F82C305B08F9
:10247800DBB21A46BB899B1A3B82FA88398A788A6A
:1024880097F83030029397F82C3001933B8D0093E6
:102498001346BA68FFF750FF00BF2037BD4680BD1E
:1024A80080B500AF01224021024803F0DBFA00BFEB
:1024B80080BD00BF0018024080B500AF3F4B1B88AD
:1024C800DBB29AB23D4B1A803D4B1B881A463D4BF6
:1024D8009B5C1B021AB2394B1B881BB213431BB2FD
:1024E8009AB2364B1A80364B1B88032B46D801A26A
:1024F80052F823F00D2500082B250008492500086F
:10250800672500082D4B1B8843F0B0039AB22B4B6C
:102518001A802A4B1B8823F040039AB2274B1A8053
:102528002DE0264B1B8843F0D0039AB2234B1A8028
:10253800224B1B8823F020039AB2204B1A801EE0FE
:102548001E4B1B8843F0E0039AB21C4B1A801B4BAE
:102558001B8823F010039AB2184B1A800FE0174B10
:102568001B8843F070039AB2144B1A80134B1B88D4
:1025780023F080039AB2114B1A8000E000BF104B81
:102588001B8801335A4203F0030302F0030258BFC9
:1025980053429AB20A4B1A80002240210A4803F09B
:1025A80061FA012302220549084805F0EEF80122E4
:1025B8004021054803F056FA00BF80BD1A000020EC
:1025C8002E0100200C0000200018024058010020B5
:1025D80080B483B000AF0346FB710B46BB71134652
:1025E8007B71FB79092B08D8FB79074AD15CBB7949
:1025F8007A798A1AD1B2054AD15400BF0C37BD4640
:102608005DF8047B704700BF100000200C0000201C
:1026180080B483B000AF0346FB71FB79012B07D16F
:102628000A4B1B8823F008039AB2084B1A8006E06D
:10263800064B1B8843F008039AB2044B1A8000BF6C
:102648000C37BD465DF8047B704700BF1A000020B8
:1026580080B483B000AF0346FB71FB79044AFF21C5
:10266800D15400BF0C37BD465DF8047B704700BFEE
:102678000C00002080B483B000AF0346FB71FB79E7
:10268800052B10D9FB79082B0DD8FB79063B0122C5
:1026980002FA03F31AB2074B1B881BB213431BB28F
:1026A8009AB2044B1A8000BF0C37BD465DF8047B14
:1026B800704700BF1A00002080B483B000AF034603
:1026C800FB71FB79052B12D9FB79082B0FD8FB7905
:1026D800063B012202FA03F31BB2DB431AB2074B93
:1026E8001B881BB213401BB29AB2044B1A8000BF5E
:1026F8000C37BD465DF8047B704700BF1A00002008
:1027080080B588B006AF02F069FE01F0C9F9FEF79E
:102718005DFF02F01DFD02F067FD02F01DFCFEF7F3
:1027280085FEFFF74BF801F02FFA32214FF47A704B
:1027380002F07CFB4FF4FA71002002F059FB64238D
:102748007B6002F0ADFB0346002B03D0FEF7AAFB2B
:10275800FFF7B2FEAF4B1B78072B01F2788101A27D
:1027680052F823F08D270008BB270008573A0008C5
:102778007D290008613A0008613A0008613A0008BA
:10278800613A00080120FFF743FFA34B0293A34BD4
:102798000193A34B0093A34BA34AA449A44801F077
:1027A80003FAA44B00221A729A4B03221A7001F002
:1027B8005AB9A14B1A78974B1B789A425FD04FF6BB
:1027C800FF70FFF7EFF864237B607A686E2178204A
:1027D80001F01AFA7B68A3F11E021F230093954BA0
:1027E8006E21782001F0C8FA7B68A3F12802002343
:1027F8000193924B00938F4B6E21782001F0B8FB28
:102808007B68A3F132024FF4784301938C4B009319
:102818008A4B6E21782001F0C7FC00230493002323
:1028280003930023029320230193854B0093834B4A
:10283800804AF021782001F0DBFD40F2CF130493A9
:1028480040F2CF13039340F2CF130293182301935E
:102858007C4B00937C4B7D4A4FF48871782001F0C3
:1028680045FE4FF4784300931823794A4FF48F714B
:10287800142001F0DFFE674B1A786F4B1A7002F0D4
:10288800F3FA0346002B65D001F074F9FEF7B2FBAA
:102898007B68A3F11E021F230093664B6E217820EC
:1028A80001F06AFA7B68A3F1280200230193634BC5
:1028B8000093604B6E21782001F05AFB7B68A3F1EE
:1028C80032024FF4784301935D4B00935B4B6E21CA
:1028D800782001F069FC002304930023039300236C
:1028E800029320230193564B0093544B514AF021F5
:1028F800782001F07DFD4F4B1B78002B25D14D4BE7
:102908005B78002B21D14B4B9B78002B1DD140F2DB
:10291800CF13049340F2CF13039340F2CF130293E3
:1029280018230193474B0093474B484A4FF488714B
:10293800782001F0DBFD4FF4784300931823444AD4
:102948004FF48F71142001F075FE3D4A3B49394818
:1029580001F018FF3F4B1B8B012B41F080802D4B62
:1029680003221A703B4B1B8B01339AB2394B1A83E3
:1029780001F075B8304B1A78264B1B789A4232D042
:10298800FEF738FB2B4B1A78294B1A70294B5A78CB
:10299800274B5A70274B9A78254B9A70254BDA7833
:1029A800234BDA70234B1A79214B1A71214B5A7930
:1029B8001F4B5A711F4BDA881D4BDA804FF6FF7098
:1029C800FEF7F0FF64237B607A686E21782001F0BF
:1029D8001BF9214B00221A70204B01221A700D4B53
:1029E8001A78154B1A701C4B1B78062B01F20780BE
:1029F80001A252F823F000BF692A00080D2D000833
:102A0800DD2F0008AD3200085334000853360008A3
:102A18005138000830010020060000200500002081
:102A28000400002003000020020000200100002014
:102A3800000000206C000020310100206D00002003
:102A48006E0000207200002071000020700000203D
:102A58006F00002048000020320100201C000020E8
:102A68009B4B1A789B4B1B789A425AD07B68A3F1F0
:102A7800280200230193984B0093984B6E217820ED
:102A880001F076FA7B68A3F132021F230193944B7D
:102A98000093914B6E21782001F086FB7B68A3F1AF
:102AA8001E024FF4784300938C4B6E21782001F07E
:102AB80063F900230493002303934FF478430293AC
:102AC80020230193864B0093834B844AF02178207E
:102AD80001F08EFC40F2CF13049340F2CF1303931E
:102AE80040F2CF130293182301937E4B00937E4B41
:102AF8007E4A4FF48871782001F0F8FC40F2CF1339
:102B0800009318237A4A4FF48F71142001F092FD34
:102B1800734A7149714801F035FE6E4B1A786C4B57
:102B28001A7002F0A1F90346002B1FD0714B1B68E5
:102B38000133704A13606F4B1B6803F00303002BCB
:102B480009D10620FFF7B8FD0720FFF7B5FD0820DB
:102B5800FFF7B2FD0AE0674B1B6803F00103002B87
:102B680004D15F4A5C495D4801F00CFE624BDA8A89
:102B7800624BA3FB021319090B461B015B1A5B008E
:102B8800D31A9BB2012B0AD1524B01221A705A4B0D
:102B9800DB8A01339AB2584BDA8200F023BF564BD6
:102BA800DA88574BA3FB021319090B469B000B4409
:102BB8009B00D31A9BB2012B3DD101F063FE7B68C9
:102BC800A3F1280200230193434B0093434B6E214A
:102BD800782001F0CDF97B68A3F132021F2301931D
:102BE8003F4B00933C4B6E21782001F0DDFA7B6867
:102BF800A3F11E024FF478430093384B6E217820DE
:102C080001F0BAF800230493002303934FF47843A8
:102C1800029320230193324B00932F4B2F4AF0212C
:102C2800782001F0E5FB344BDB8801339AB2324B54
:102C3800DA8000F0D7BE304BDA89314BA3FB0213A0
:102C480019090B469B000B449B00D31A9BB2012B1E
:102C580040F0C88601F04AFE7B68A3F128020023F1
:102C680001931D4B00931D4B6E21782001F080F9D4
:102C78007B68A3F132021F230193194B0093164B73
:102C88006E21782001F090FA7B68A3F11E024FF4C0
:102C980078430093114B6E21782001F06DF80023E2
:102CA8000493002303934FF4784302932023019362
:102CB8000B4B0093084B094AF021782001F098FB50
:102CC8000D4BDB8901339AB20B4BDA8100F08ABED7
:102CD8001C0000203201002001000020000000201C
:102CE800020000200600002005000020040000204B
:102CF80003000020340100204800002089888888CB
:102D0800CDCCCCCCA64B1A78A64B1B789A425AD07D
:102D18007B68A3F11E0200230093A34B6E21782049
:102D280001F02AF87B68A3F132021F2301939F4B1D
:102D380000939F4B6E21782001F036FA7B68A3F14F
:102D480028024FF478430193994B0093964B6E21D8
:102D5800782001F00DF9002304934FF4784303938E
:102D68000023029320230193904B0093904B8E4AAB
:102D7800F021782001F03CFB40F2CF13049340F29D
:102D8800CF13039340F2CF13029318230193894B77
:102D98000093894B894A4FF48871782001F0A6FB8B
:102DA80040F2CF1300931823854A4FF48F711420F3
:102DB80001F040FC7D4A7E497B4801F0E3FC794BF9
:102DC8001A78774B1A7002F04FF80346002B1CD084
:102DD8007C4B1B6801337B4A13607A4B1B6803F0FA
:102DE8000303002B06D10220FFF732FC0320FFF774
:102DF8002FFC0AE0734B1B6803F00103002B04D17E
:102E08006A4A6B49684801F0BDFC6F4BDA8A6F4B20
:102E1800A3FB021319090B461B015B1A5B00D31AAB
:102E28009BB2012B0AD15F4B02221A70664BDB8AD8
:102E380001339AB2644BDA8200F0D6BD624BDA8B6A
:102E4800624BA3FB021319090B461B015B1A5B00BB
:102E5800D31A9BB2012B0AD1524B00221A705A4B3B
:102E6800DB8B01339AB2584BDA8300F0BDBD564B69
:102E7800DA88574BA3FB021319090B469B000B4436
:102E88009B00D31A9BB2012B3DD101F063FD7B68F7
:102E9800A3F11E0200230093434B6E21782000F01B
:102EA8006BFF7B68A3F132021F2301933F4B009312
:102EB8003F4B6E21782001F077F97B68A3F1280257
:102EC8004FF4784301933A4B0093374B6E217820A7
:102ED80001F04EF8002304934FF478430393002342
:102EE800029320230193314B0093314B2E4AF0215A
:102EF800782001F07DFA344BDB8801339AB2324BEB
:102F0800DA8000F071BD304BDA89314BA3FB021334
:102F180019090B469B000B449B00D31A9BB2012B4B
:102F280040F0628501F03CFD7B68A3F11E0200239E
:102F380000931D4B6E21782000F01EFF7B68A3F1E3
:102F480032021F230193194B0093194B6E217820ED
:102F580001F02AF97B68A3F128024FF47843019322
:102F6800134B0093104B6E21782001F001F80023D9
:102F780004934FF47843039300230293202301938F
:102F88000A4B00930A4B084AF021782001F030FAE6
:102F98000D4BDB8901339AB20B4BDA8100F024BD6B
:102FA8001C00002032010020000000200200002048
:102FB8000100002006000020050000200400002079
:102FC80003000020380100204800002089888888F4
:102FD800CDCCCCCCA64B1A78A64B1B789A425AD0AB
:102FE8007B68A3F11E0200230093A34B6E21782077
:102FF80000F0C2FE7B68A3F128021F2301939F4BB8
:1030080000939D4B6E21782000F0B2FF7B68A3F1FE
:1030180032024FF478430193994B0093974B6E21FA
:10302800782001F0C1F84FF4784304930023039308
:103038000023029320230193914B00938F4B8E4AD8
:10304800F021782001F0D4F940F2CF13049340F234
:10305800CF13039340F2CF13029318230193894BA4
:103068000093894B894A4FF48871782001F03EFA21
:1030780040F2CF1300931823854A4FF48F71142020
:1030880001F0D8FA7E4A7D497B4801F07BFB794BF9
:103098001A78774B1A7001F0E7FE0346002B1CD014
:1030A8007C4B1B6801337B4A13607A4B1B6803F027
:1030B8000303002B06D10020FFF7CAFA0120FFF70F
:1030C800C7FA0AE0734B1B6803F00103002B04D115
:1030D8006B4A6A49684801F055FB6F4BDA8A6F4BB7
:1030E800A3FB021319090B461B015B1A5B00D31AD9
:1030F8009BB2012B0AD15F4B03221A70664BDB8A05
:1031080001339AB2644BDA8200F070BC624BDA8BFE
:10311800624BA3FB021319090B461B015B1A5B00E8
:10312800D31A9BB2012B0AD1524B01221A705A4B67
:10313800DB8B01339AB2584BDA8300F057BC564BFD
:10314800DA88574BA3FB021319090B469B000B4463
:103158009B00D31A9BB2012B3DD101F047FC7B6841
:10316800A3F11E0200230093434B6E21782000F048
:1031780003FE7B68A3F128021F2301933F4B0093B2
:103188003D4B6E21782000F0F3FE7B68A3F13202FC
:103198004FF4784301933A4B0093384B6E217820D3
:1031A80001F002F84FF478430493002303930023BB
:1031B800029320230193324B0093304B2E4AF02187
:1031C800782001F015F9344BDB8801339AB2324B81
:1031D800DA8000F00BBC304BDA89314BA3FB0213C9
:1031E80019090B469B000B449B00D31A9BB2012B79
:1031F80040F0FC8301F012FC7B68A3F11E0200235F
:1032080000931D4B6E21782000F0B6FD7B68A3F17A
:1032180028021F230193194B0093174B6E21782026
:1032280000F0A6FE7B68A3F132024FF478430193C5
:10323800134B0093114B6E21782000F0B5FF4FF42B
:1032480078430493002303930023029320230193DC
:103258000B4B0093094B084AF021782001F0C8F87D
:103268000D4BDB8901339AB20B4BDA81BEE300BF09
:103278001C00002032010020000000200100002076
:1032880002000020060000200500002004000020A5
:10329800030000203C01002048000020898888881D
:1032A800CDCCCCCCA54B1A78A54B1B789A4259D0DB
:1032B8007B68A3F11E0200230093A24B6E217820A5
:1032C80000F05AFD7B68A3F128021F2301939E4B4F
:1032D80000939C4B6E21782000F04AFE7B68A3F196
:1032E80032024FF478430193984B0093964B6E212A
:1032F800782000F059FF0023049300230393002350
:10330800029320230193914B00938F4B8D4AF02118
:10331800782001F06DF840F2CF13049340F2CF13F8
:10332800039340F2CF13029318230193884B009321
:10333800884B894A4FF48871782001F0D7F84FF408
:10334800784300931823854A4FF48F71142001F0B5
:1033580071F97E4A7C497B4801F014FA784B1A7857
:10336800764B1A707E4BDA8A7E4BA3FB021319093F
:103378000B461B015B1A5B00D31A9BB2012B09D1C8
:103388006F4B04221A70764BDB8A01339AB2744B66
:10339800DA822DE3724BDA8B724BA3FB0213190905
:1033A8000B461B015B1A5B00D31A9BB2012B09D198
:1033B800634B02221A706A4BDB8B01339AB2684B5B
:1033C800DA8315E3664BDA88674BA3FB0213190906
:1033D8000B469B000B449B00D31A9BB2012B12D1C6
:1033E80001F034FB4FF47843009318235B4A4FF401
:1033F8008F71142001F01EF9594BDB8801339AB202
:10340800574BDA80F4E2564BDA89574BA3FB021389
:1034180019090B469B000B449B00D31A9BB2012B46
:1034280040F0E68201F02AFB4FF47843009318231A
:103438004A4A4FF48F71142001F0FCF8484BDB899D
:1034480001339AB2464BDA81D2E23C4B1A783C4BB4
:103458001B789A4259D07B68A3F11E02002300937F
:10346800384B6E21782000F087FC7B68A3F1280296
:103478001F230193344B0093324B6E21782000F0C8
:1034880077FD7B68A3F132024FF4784301932F4B09
:1034980000932D4B6E21782000F086FE00230493C4
:1034A800002303930023029320230193274B0093C7
:1034B800254B244AF021782000F09AFF40F2CF13E0
:1034C800049340F2CF1303934FF4784302931823E5
:1034D80001931F4B00931F4B1F4A4FF488717820AC
:1034E80001F004F840F2CF13009318231B4A4FF45D
:1034F8008F71142001F09EF8144A1349114801F005
:1035080041F90F4B1A780D4B1A70154BDA8A154B87
:10351800A3FB021319090B461B015B1A5B00D31AA4
:103528009BB2012B22D1064B05221A700C4BDB8A69
:1035380001339AB20A4BDA825CE200BF1C00002019
:1035480032010020000000200100002002000020BD
:1035580006000020050000200400002003000020D1
:103568004800002089888888CDCCCCCCAA4BDA8B3F
:10357800AA4BA3FB021319090B461B015B1A5B003C
:10358800D31A9BB2012B09D1A54B03221A70A24B67
:10359800DB8B01339AB2A04BDA832BE29E4BDA889D
:1035A800A04BA3FB021319090B469B000B449B007D
:1035B800D31A9BB2012B1CD101F078FA40F2CF1339
:1035C800049340F2CF1303934FF4784302931823E4
:1035D8000193954B0093954B954A4FF48871782049
:1035E80000F084FF8C4BDB8801339AB28A4BDA8077
:1035F80000E2894BDA898B4BA3FB021319090B46AE
:103608009B000B449B00D31A9BB2012B40F0F28124
:1036180001F084FA40F2CF13049340F2CF130393DE
:103628004FF478430293182301937F4B00937F4B09
:103638007F4A4FF48871782000F058FF764BDB8979
:1036480001339AB2744BDA81D4E17A4B1A78744B0D
:103658001B789A4259D07B68A3F11E02002300937D
:10366800754B6E21782000F087FB7B68A3F1280258
:103678001F230193714B00936F4B6E21782000F04C
:1036880077FC7B68A3F132024FF4784301936C4BCB
:1036980000936A4B6E21782000F086FD0023049386
:1036A800002303930023029320230193644B009388
:1036B800624B614AF021782000F09AFE40F2CF1365
:1036C80004934FF47843039340F2CF1302931823E3
:1036D8000193554B0093554B554A4FF48871782008
:1036E80000F004FF40F2CF1300931823554A4FF41B
:1036F8008F71142000F09EFF514A50494E4801F046
:1037080041F8474B1A784B4B1A70434BDA8A434BB4
:10371800A3FB021319090B461B015B1A5B00D31AA2
:103728009BB2012B09D13E4B06221A703A4BDB8A19
:1037380001339AB2384BDA825EE1374BDA8B374B7A
:10374800A3FB021319090B461B015B1A5B00D31A72
:103758009BB2012B09D1324B04221A702E4BDB8B02
:1037680001339AB22C4BDA8346E12B4BDA882D4B86
:10377800A3FB021319090B469B000B449B00D31AA9
:103788009BB2012B1CD101F0FBF940F2CF1304933B
:103798004FF47843039340F2CF1302931823019315
:1037A800214B0093214B224A4FF48871782000F076
:1037B8009DFE194BDB8801339AB2174BDA801BE167
:1037C800154BDA89174BA3FB021319090B469B000B
:1037D8000B449B00D31A9BB2012B40F00D8101F0E2
:1037E80005FA40F2CF1304934FF47843039340F261
:1037F800CF130293182301930B4B00930B4B0C4AE6
:103808004FF48871782000F071FE034BDB89013397
:103818009AB2014BDA81EFE0480000208988888855
:1038280032010020CDCCCCCC0600002005000020C1
:10383800040000201C0000200000002001000020DF
:103848000200002003000020884B1A78884B1B7860
:103858009A4259D07B68A3F11E0200230093854B3E
:103868006E21782000F088FA7B68A3F128021F23D4
:103878000193814B00937F4B6E21782000F078FBF9
:103888007B68A3F132024FF4784301937B4B00939A
:10389800794B6E21782000F087FC002304930023E5
:1038A80003930023029320230193744B0093724BDC
:1038B800704AF021782000F09BFD4FF47843049380
:1038C80040F2CF13039340F2CF13029318230193CE
:1038D8006B4B00936B4B6C4A4FF48871782000F067
:1038E80005FE40F2CF1300931823684A4FF48F71F6
:1038F800142000F09FFE614A5F495E4800F042FFD5
:103908005B4B1A78594B1A70614BDA8B614BA3FBEE
:10391800021319090B461B015B1A5B00D31A9BB2F1
:10392800012B09D1524B05221A70594BDB8B0133FD
:103938009AB2574BDA8361E0554BDA88564BA3FBB2
:10394800021319090B469B000B449B00D31A9BB228
:10395800012B1CD101F080F94FF47843049340F215
:10396800CF13039340F2CF13029318230193444BD0
:103978000093444B444A4FF48871782000F0B6FD18
:10398800434BDB8801339AB2414BDA8036E0404B37
:10399800DA89414BA3FB021319090B469B000B4420
:1039A8009B00D31A9BB2012B28D101F07DF94FF46B
:1039B8007843049340F2CF13039340F2CF1302935A
:1039C800182301932E4B00932E4B2F4A4FF48871E6
:1039D800782000F08BFD2E4BDB8901339AB22C4BFB
:1039E800DA810BE000BF0AE000BF08E000BF06E094
:1039F80000BF04E000BF02E000BF00E000BF244BAE
:103A08001B8B012B15D11E4B02931E4B01931E4B92
:103A180000931E4B194A1849164800F0C5F81F4B69
:103A280001221A701A4B1B8B01339AB2184B1A8356
:103A380018E0174B9B8B012B14D1184B01221A70DD
:103A4800134B9B8B01339AB2114B9A830AE0134BA9
:103A580000221A70FEF775BE00BFFEF772BE00BFE7
:103A6800FEF76FBE00BFFEF76CBE00BF1C00002053
:103A78003201002000000020010000200200002088
:103A8800060000200500002004000020030000209C
:103A98004800002089888888CDCCCCCC3001002013
:103AA80080B594B000AF07F12003302200211846FA
:103AB80005F04EF907F10C0300221A605A609A606B
:103AC800DA601A610023BB60284B1B6C274A43F05D
:103AD80080531364254B1B6C03F08053BB60BB6899
:103AE80000237B60224B1B68214A43F48043136008
:103AF8001F4B1B6803F480437B607B6802233B6297
:103B08000123FB6210233B630223BB630023FB6397
:103B180008233B64A8237B640223BB640423FB645F
:103B280007F12003184603F023F90346002B01D0C0
:103B380001F044F90F23FB6002233B6100237B6102
:103B48004FF4A053BB614FF4A053FB6107F10C0382
:103B58000521184603F084FB0346002B01D001F031
:103B68002DF900BF5037BD4680BD00BF0038024068
:103B78000070004080B500AF1021024801F08BFFB3
:103B880000BF80BD0010024080B500AF01F01CF9F5
:103B980001F024F9FEF778F9FEF782FCFDF7EEF95B
:103BA800FDF774F900BF80BD80B584B000AFF86040
:103BB800B9607A603B60FB681B781846FDF78AFAA3
:103BC800BB681B781846FDF793FA7B681B78184684
:103BD800FDF79CFA3B681B781846FDF7B9FABB69F4
:103BE8001B781846FDF7C2FAFB691B781846FDF7E3
:103BF800CBFA3B6A1B881846FDF700FB00BF10375D
:103C0800BD4680BD000000002DE9B04F8EB004AF66
:103C1800F860B9607A60182387F823307B6802332C
:103C28000122009240F2CF12B968F868FEF717FB3C
:103C3800012300937B684FF6FF72B968F868FEF7B6
:103C48000EFB00237B6286E07A6A13461B019B1AEF
:103C58005B001846FCF706FC45A3D3E90023FCF7F4
:103C68006BFC02460B4610461946FCF747FF034615
:103C7800FB61F868FCF7F6FB804689467B680F3BDA
:103C88001846FCF7EFFB82468B46F869FCF7FCFB0D
:103C980002460B4643EC102B05F0DAF853EC102BD8
:103CA80050465946FCF748FC02460B4640464946F2
:103CB800FCF78CFA02460B4610461946FCF7D6FE6E
:103CC8000346BB61B868FCF7CDFB804689467B6834
:103CD8000F3B1846FCF7C6FB82468B46F869FCF793
:103CE800D3FB02460B4643EC102B05F05DF853EC72
:103CF800102B144683F0004522462B465046594661
:103D0800FCF71AFC02460B4640464946FCF75EFAA9
:103D180002460B4610461946FCF7A8FE03467B618F
:103D2800BB6998B27B6999B27B6A002B02D07B6A27
:103D38009AB200E00C220123039397F823300293F0
:103D48004FF6FF730193002300930223FDF7E4FF6E
:103D58007B6A01337B627B6A0B2B7FF775AF00BFF1
:103D680000BF2837BD46BDE8B08F00BFAFF3008065
:103D7800399D52A246DF913F2DE9F04F8BB002AF3B
:103D880078613961FA60BB607869FCF76BFB824641
:103D98008B46F868FCF766FBC7E90001724B1B68A5
:103DA8001846FCF771FB02460B4643EC102B05F056
:103DB8004FF853EC102BD7E90001FCF7BDFB024686
:103DC8000B4650465946FCF701FA02460B46104688
:103DD8001946FCF74BFE0346FB613869FCF742FBCA
:103DE80082468B46F868FCF73DFBC7E900015E4B4D
:103DF8001B681846FCF748FB02460B4643EC102BA1
:103E080004F0D2FF53EC102B904683F00049424651
:103E18004B46D7E90001FCF78FFB02460B4650469C
:103E28005946FCF7D3F902460B4610461946FCF7EB
:103E38001DFE0346BB617B6998B23B6999B2FB6979
:103E48009AB2BB699BB24FF6FF760096FDF7F3FD79
:103E5800BB681B781A4613465B0013445B00184680
:103E6800FCF700FB3EA3D3E90023FCF765FB024601
:103E78000B4610461946FCF741FE03463A4A1360C2
:103E88007869FCF7EFFA80468946F868FCF7EAFAA1
:103E980082468B46344B1B681846FCF7F5FA0246F7
:103EA8000B4643EC102B04F0D3FF53EC102B504679
:103EB8005946FCF741FB02460B4640464946FCF78B
:103EC80085F902460B4610461946FCF7CFFD034616
:103ED800FB613869FCF7C6FA80468946F868FCF742
:103EE800C1FA82468B46204B1B681846FCF7CCFA71
:103EF80002460B4643EC102B04F056FF53EC102BF4
:103F0800144683F0004522462B4650465946FCF796
:103F180013FB02460B4640464946FCF757F9024652
:103F28000B4610461946FCF7A1FD0346BB617B69A9
:103F380098B23B6999B2FB699AB2BB699CB2B7F86F
:103F4800483000932346FDF776FD074B1B6807EEC4
:103F5800903AB0EE670A2437BD46BDE8F08F00BF3F
:103F6800399D52A246DF913F400100200000000029
:103F78002DE9F04F8BB002AF78613961FA60BB6010
:103F88007869FCF76FFA82468B46F868FCF76AFA9C
:103F9800C7E90001804B1B681846FCF775FA024612
:103FA8000B4643EC102B04F053FF53EC102BD7E9CE
:103FB8000001FCF7C1FA02460B4650465946FCF789
:103FC80005F902460B4610461946FCF74FFD034615
:103FD800FB613869FCF746FA82468B46F868FCF7BD
:103FE80041FAC7E900016C4B1B681846FCF74CFA0C
:103FF80002460B4643EC102B04F0D6FE53EC102B74
:10400800904683F0004942464B46D7E90001FCF749
:1040180093FA02460B4650465946FCF7D7F8024633
:104028000B4610461946FCF721FD0346BB617B6928
:1040380098B23B6999B2FB699AB2BB699BB24FF6D9
:10404800FF760096FDF7F7FCBB6C1B781846FCF76B
:1040580009FA80468946BB681B781846FCF702FABD
:104068004FF000024D4BFCF791FB02460B464046D1
:104078004946FCF7ABF802460B46104619464FF086
:104088000002474BFCF758FA02460B461046194601
:104098003FA3D3E90023FCF74FFA02460B4610462C
:1040A8001946FCF72BFD03463B4A13607869FCF779
:1040B800D9F980468946F868FCF7D4F982468B46D8
:1040C800354B1B681846FCF7DFF902460B4643ECF4
:1040D800102B04F0BDFE53EC102B50465946FCF74C
:1040E8002BFA02460B4640464946FCF76FF8024653
:1040F8000B4610461946FCF7B9FC0346FB613869C4
:10410800FCF7B0F980468946F868FCF7ABF98246B7
:104118008B46214B1B681846FCF7B6F902460B463E
:1041280043EC102B04F040FE53EC102B144683F0A4
:10413800004522462B4650465946FCF7FDF90246F3
:104148000B4640464946FCF741F802460B461046E6
:104158001946FCF78BFC0346BB617B6998B23B6947
:1041680099B2FB699AB2BB699CB2B7F84C3000931C
:104178002346FDF760FC084B1B6807EE903AB0EE4B
:10418800670A2437BD46BDE8F08F00BFAFF3008053
:10419800399D52A246DF913F4401002000004E4065
:1041A80000001840000000002DE9F04F8BB002AF6E
:1041B80078613961FA60BB607869FCF753F9824627
:1041C8008B46F868FCF74EF9C7E90001844B1B6879
:1041D8001846FCF759F902460B4643EC102B04F03D
:1041E80037FE53EC102BD7E90001FCF7A5F902467E
:1041F8000B4650465946FBF7E9FF02460B46104668
:104208001946FCF733FC0346FB613869FCF72AF9C9
:1042180082468B46F868FCF725F9C7E90001704B20
:104228001B681846FCF730F902460B4643EC102B86
:1042380004F0BAFD53EC102B904683F00049424637
:104248004B46D7E90001FCF777F902460B46504682
:104258005946FBF7BBFF02460B4610461946FCF7CA
:1042680005FC0346BB617B6998B23B6999B2FB695F
:104278009AB2BB699BB24FF6FF760096FDF7DBFB5F
:10428800BB6C1A78574BA3FB0213D9080B465B008B
:104298000B449B00D31ADBB21846FCF7E3F88046C0
:1042A8008946BB681B781846FCF7DCF84FF000021B
:1042B8004D4BFCF76BFA02460B4640464946FBF766
:1042C80085FF02460B46104619464FF00002474B41
:1042D800FCF732F902460B46104619463EA3D3E9CD
:1042E8000023FCF729F902460B4610461946FCF74D
:1042F80005FC03463A4A13607869FCF7B3F8804630
:104308008946F868FCF7AEF882468B46344B1B6842
:104318001846FCF7B9F802460B4643EC102B04F09C
:1043280097FD53EC102B50465946FCF705F9024609
:104338000B4640464946FBF749FF02460B461046E6
:104348001946FCF793FB0346FB613869FCF78AF8CA
:1043580080468946F868FCF785F882468B46204BEC
:104368001B681846FCF790F802460B4643EC102BE6
:1043780004F01AFD53EC102B144683F00045224636
:104388002B4650465946FCF7D7F802460B4640469E
:104398004946FBF71BFF02460B4610461946FCF739
:1043A80065FB0346BB617B6998B23B6999B2FB69BF
:1043B8009AB2BB699CB2B7F84C3000932346FDF71C
:1043C8003AFB074B1B6807EE903AB0EE670A2437B2
:1043D800BD46BDE8F08F00BF399D52A246DF913F30
:1043E80048010020ABAAAAAA00004E4000003E40A7
:1043F80080B588B004AFF860B9607A603B60FB684C
:104408009AB23B7F9BB25B009BB2D31A98B2BB684F
:1044180099B2BB691B781A46002303933B7F02932A
:104428004FF6FF7301933B8D00930223FDF774FC55
:10443800FB6898B2BB6899B23B681B781A460023A0
:1044480003933B7F02934FF6FF730193BB8C00935A
:104458000223FDF761FC3B7F9BB25B009AB2FB68CD
:104468009BB2134498B2BB6899B27B681B781A4612
:10447800002303933B7F02934FF6FF7301933B8C1A
:1044880000930223FDF748FC3B7F9AB2FB689BB27E
:10449800134498B2BB6899B2012302933B7F0193FE
:1044A8004FF6FF73009300230F4AFDF7A9FFFB683F
:1044B8009AB23B7F9BB25B009BB2D31A9AB23B7F06
:1044C8009BB2134498B2BB6899B2012302933B7F15
:1044D80001934FF6FF7300930023034AFDF790FF03
:1044E80000BF1037BD4680BDD09E0008B0B588B06B
:1044F80004AFF860B9607A603B60FB689AB297F8DD
:1045080024309BB25B009BB2D31A98B2BB6899B2B5
:104518007B681B781A460023039397F8243002938C
:104528004FF6FF7301933B8D00930223FDF7F4FBD5
:10453800FB6898B2BB6899B23B681B781A4600239F
:10454800039397F8243002934FF6FF730193BB8DC2
:1045580000930223FDF7E0FB97F824305A00FB682C
:1045680013441846FBF77EFF04460D4697F824309F
:104578001846FBF777FF4FF000024FF08043FCF737
:1045880005F902460B4620462946FBF71FFE024660
:104598000B4610461946FCF791FA034698B2BB68D9
:1045A80099B23B6A1A880023039397F82430029340
:1045B8004FF6FF7301933B8E00930423FDF7ACFB8A
:1045C80097F824309AB2FB689BB2134498B2BB6840
:1045D80099B2BA8D0123029397F8243001934FF6CC
:1045E800FF7300931346124AFDF70AFFFB689AB25D
:1045F80097F824309BB25B009BB2D31A9AB297F813
:1046080024309BB2134498B2BB6899B2BA8D012387
:10461800029397F8243001934FF6FF7300931346E3
:10462800034AFDF7EDFE00BF1037BD46B0BD00BF21
:10463800D49E000880B588B004AFF860B9607A608D
:10464800FB707B681B78013B062B00F2898001A276
:1046580052F823F0794600089B460008BD4600083A
:10466800DF460008014700082347000845470008BF
:10467800FB6898B2BB6899B23A8B00230293FB7827
:1046880001934FF6FF7300931346374AFDF754FE24
:1046980065E0FB6898B2BB6899B23A8B0023029335
:1046A800FB7801934FF6FF73009313462F4AFDF7EB
:1046B80043FE54E0FB6898B2BB6899B23A8B00237A
:1046C8000293FB7801934FF6FF7300931346284A31
:1046D800FDF732FE43E0FB6898B2BB6899B23A8BAB
:1046E80000230293FB7801934FF6FF730093134660
:1046F800204AFDF721FE32E0FB6898B2BB6899B208
:104708003A8B00230293FB7801934FF6FF730093D3
:104718001346194AFDF710FE21E0FB6898B2BB6802
:1047280099B23A8B00230293FB7801934FF6FF73FB
:1047380000931346114AFDF7FFFD10E0FB6898B29D
:10474800BB6899B23A8B00230293FB7801934FF62A
:10475800FF73009313460A4AFDF7EEFD00BF00BF42
:1047680000BF1037BD4680BDD89E0008E49E0008F3
:10477800F09E0008FC9E0008089F0008149F00088F
:104788001C9F000880B584B000AFF860B9607A60FB
:10479800FB681B783A4AA2FB0323DB08DBB203F071
:1047A8000103002B03D00620FDF764FF02E006207A
:1047B800FDF782FFFB681B78314AA2FB0323DB0865
:1047C800DBB25B08DBB203F00103002B03D0072048
:1047D800FDF750FF02E00720FDF76EFFFB681B782E
:1047E800274AA2FB0323DB08DBB29B08DBB203F0FA
:1047F8000103002B03D00820FDF73CFF02E008204E
:10480800FDF75AFF7B681B781D4AA2FB0323DB08D0
:10481800DBB2002200211846FDF7DAFE7B681A7821
:10482800174BA3FB0213D9080B469B000B445B00F4
:10483800D31ADBB2002201211846FDF7C9FEBB6876
:104848001B780F4AA2FB0323DB08DBB200220221FC
:104858001846FDF7BDFEBB681A78094BA3FB021387
:10486800D9080B469B000B445B00D31ADBB200222D
:1048780003211846FDF7ACFE00BF1037BD4680BDCA
:10488800CDCCCCCC80B400AF174B1B783A2B06D8D4
:10489800154B1B780133DAB2134B1A701EE0124B1A
:1048A80000221A70104B5B783A2B06D80E4B5B78B7
:1048B8000133DAB20C4B5A7010E00B4B00225A70DD
:1048C800094B9B78162B06D8074B9B780133DAB235
:1048D800054B9A7002E0044B00229A7000BFBD4657
:1048E8005DF8047B704700BF0000002080B400AF73
:1048F800174B1B78002B06D0154B1B78013BDAB2FF
:10490800134B1A701EE0124B3B221A70104B5B7847
:10491800002B06D00E4B5B78013BDAB20C4B5A7079
:1049280010E00B4B3B225A70094B9B78002B06D0AA
:10493800074B9B78013BDAB2054B9A7002E0044BB7
:1049480017229A7000BFBD465DF8047B704700BF10
:104958000000002080B400AF104B5B783A2B06D8DB
:104968000E4B5B780133DAB20C4B5A7010E00B4BEC
:1049780000225A70094B9B78162B06D8074B9B7858
:104988000133DAB2054B9A7002E0044B00229A70A8
:1049980000BFBD465DF8047B704700BF00000020E3
:1049A80080B400AF104B5B78002B06D00E4B5B78C1
:1049B800013BDAB20C4B5A7010E00B4B3B225A7099
:1049C800094B9B78002B06D0074B9B78013BDAB24A
:1049D800054B9A7002E0044B17229A7000BFBD463F
:1049E8005DF8047B704700BF0000002080B400AF72
:1049F800094B9B78162B06D8074B9B780133DAB204
:104A0800054B9A7002E0044B00229A7000BFBD4625
:104A18005DF8047B704700BF0000002080B400AF41
:104A2800094B9B78002B06D0074B9B78013BDAB2E9
:104A3800054B9A7002E0044B17229A7000BFBD46DE
:104A48005DF8047B704700BF0000002080B400AF11
:104A5800094BDB78062B06D8074BDB780133DAB233
:104A6800054BDA7002E0044B0122DA7000BFBD4644
:104A78005DF8047B704700BF0000002080B400AFE1
:104A8800094BDB78012B06D9074BDB78013BDAB2FF
:104A9800054BDA7002E0044B0722DA7000BFBD460E
:104AA8005DF8047B704700BF0000002080B582B02D
:104AB80000AF194B5B791A46174BDB88194610462D
:104AC80000F01EF97860144B1B791A467B689342F4
:104AD80006DD114B1B790133DAB20F4B1A7116E060
:104AE8000D4B01221A710C4B5B790B2B06D80A4B24
:104AF8005B790133DAB2084B5A7108E0064B0122A0
:104B08005A71054BDB8801339AB2034BDA8000BF38
:104B18000837BD4680BD00BF0000002080B500AF4B
:104B2800164B1B79012B06D9144B1B79013BDAB2C2
:104B3800124B1A7120E0114B5B79012B06D90F4BF0
:104B48005B79013BDAB20D4B5A7108E00B4B0C2232
:104B58005A710A4BDB88013B9AB2084BDA80074B43
:104B68005B791A46054BDB881946104600F0C8F8F1
:104B78000346DAB2014B1A7100BF80BD0000002065
:104B880098B500AF184B5B790B2B06D8164B5B79A1
:104B98000133DAB2144B5A7108E0134B01225A71EF
:104BA800114BDB8801339AB20F4BDA800E4BDC785D
:104BB8000D4B5B791A460C4BDB881946104600F002
:104BC8009FF80346DBB29C420CD9074B5B791A4627
:104BD800054BDB881946104600F092F80346DAB216
:104BE800014BDA7000BF98BD0000002098B500AFF7
:104BF800184B5B79012B06D9164B5B79013BDAB26E
:104C0800144B5A7108E0134B0C225A71114BDB8874
:104C1800013B9AB20F4BDA800E4BDC780D4B5B7977
:104C28001A460C4BDB881946104600F069F8034613
:104C3800DBB29C420CD9074B5B791A46054BDB88E3
:104C48001946104600F05CF80346DAB2014BDA70F8
:104C580000BF98BD0000002098B500AF114BDB885D
:104C680001339AB20F4BDA800E4BDC780D4B5B792F
:104C78001A460C4BDB881946104600F041F80346EB
:104C8800DBB29C420CD9074B5B791A46054BDB8893
:104C98001946104600F034F80346DAB2014BDA70D0
:104CA80000BF98BD0000002098B500AF134BDB880B
:104CB800002B05D0114BDB88013B9AB20F4BDA80F1
:104CC8000E4BDC780D4B5B791A460C4BDB8819468A
:104CD800104600F015F80346DBB29C420CD9074B8E
:104CE8005B791A46054BDB881946104600F008F830
:104CF8000346DAB2014BDA7000BF98BD000000200D
:104D080080B483B000AF786039607B680C2B8CBFAF
:104D180001220022D2B2002A47D1012202FA03F36B
:104D280041F2AA521A40002A14BF01220022D2B22C
:104D3800002A12D103F42562002A14BF012200229E
:104D4800D2B2002A0BD103F00403002B14BF0123B5
:104D58000023DBB2002B04D127E01F2326E01E230B
:104D680024E03B6803F00303002B0CD13A68124B94
:104D780083FB02135911D317CB1A642101FB03F3E8
:104D8800D31A002B0DD13A680B4B83FB0213D911B0
:104D9800D317CB1A4FF4C87101FB03F3D31A002BB6
:104DA80001D11D2302E01C2300E01E2318460C3706
:104DB800BD465DF8047B70471F85EB5180B400AF9A
:104DC80072B600BF00BFFDE780B500AF024803F030
:104DD800C1FA00BF80BD00BFB001002080B500AFA0
:104DE800024803F0B7FA00BF80BD00BFF8010020F9
:104DF80080B483B000AF03460A46FB801346BB80ED
:104E0800074ABB881380074AFB881380064B002299
:104E18001A7000BF0C37BD465DF8047B704700BFB1
:104E2800500100204E0100204C01002080B483B0C6
:104E380000AF03460A46FB801346BB80074ABB887F
:104E48001380074AFB881380064B00221A7000BFA4
:104E58000C37BD465DF8047B704700BF5601002043
:104E6800540100205201002080B400AF094B1B7888
:104E7800002B08D0074B00221A70074B1A88074BE3
:104E88001A80012300E000231846BD465DF8047B24
:104E9800704700BF4C010020500100204E01002047
:104EA80080B400AF094B1B78002B08D0074B0022B9
:104EB8001A70074B1A88074B1A80012300E0002359
:104EC8001846BD465DF8047B704700BF52010020BC
:104ED800560100205401002080B582B000AF7860F0
:104EE8007B681B68B3F1804F10D1164B1B88002BD1
:104EF80005D0144B1B88013B9AB2124B1A80114BF8
:104F08001B88002B02D1104B01221A707B681B688A
:104F18000E4A934212D10E4B1B88002B05D00C4B26
:104F28001B88013B9AB20A4B1A80094B1B88002B3D
:104F380002D1084B01221A70FDF7BEFA00BF0837EC
:104F4800BD4680BD4E0100204C01002000080040F5
:104F5800540100205201002080B500AF174B184AB9
:104F68001A60164B4FF482725A60144B00229A60F2
:104F7800124B0022DA60114B00221A610F4B0022FB
:104F88005A610E4B4FF400729A610C4B0022DA61A1
:104F98000A4B00221A62094B00225A62074B002270
:104FA8009A62064B0A22DA62044802F065FB03465D
:104FB800002B01D0FFF702FF00BF80BD5801002081
:104FC8000030014080B58AB000AF786007F1140363
:104FD80000221A605A609A60DA601A617B681B685E
:104FE800194A93422BD100233B61184B5B6C174A3B
:104FF80043F480535364154B5B6C03F480533B615B
:105008003B690023FB60114B1B6B104A43F0020302
:1050180013630E4B1B6B03F00203FB60FB68382322
:105028007B610223BB610023FB6103233B620523F1
:105038007B6207F114031946054800F077FB00BFAF
:105048002837BD4680BD00BF00300140003802400F
:105058000004024080B483B000AF00237B60104B93
:105068005B6C0F4A43F4804353640D4B5B6C03F451
:1050780080437B607B6800233B60094B1B6C084ABC
:1050880043F080531364064B1B6C03F080533B6062
:105098003B6800BF0C37BD465DF8047B704700BF16
:1050A8000038024080B400AF00BFFDE780B400AF15
:1050B80000BFFDE780B400AF00BFFDE780B400AFDC
:1050C80000BFFDE780B400AF00BFFDE780B400AFCC
:1050D80000BFBD465DF8047B704780B400AF00BFD9
:1050E800BD465DF8047B704780B400AF00BFBD4685
:1050F8005DF8047B704780B500AF00F0C1F900BFD0
:1051080080BD000080B500AF024803F093F900BFEE
:1051180080BD00BFB001002080B500AF024803F099
:1051280089F900BF80BD00BFF801002080B400AF3E
:10513800064BD3F88830054A43F47003C2F8883028
:1051480000BFBD465DF8047B704700BF00ED00E07E
:1051580080B586B000AF07F1080300221A605A60D4
:105168009A60DA603B4600221A605A601D4B4FF085
:1051780080421A601B4B42F2CF025A60194B002240
:105188009A60184B0922DA60164B00221A61154BF7
:1051980000229A61134803F08DF80346002B01D0D2
:1051A800FFF70CFE4FF48053BB6007F10803194664
:1051B8000C4803F02FFA0346002B01D0FFF7FEFD41
:1051C80000233B6000237B603B461946054803F0FB
:1051D80057FC0346002B01D0FFF7F0FD00BF18373E
:1051E800BD4680BDB001002080B586B000AF07F194
:1051F800080300221A605A609A60DA603B4600226F
:105208001A605A601D4B1E4A1A601C4B42F2CF02AC
:105218005A601A4B00229A60184B0922DA60174B21
:1052280000221A61154B00229A61144803F042F8D3
:105238000346002B01D0FFF7C1FD4FF48053BB603C
:1052480007F1080319460D4803F0E4F90346002B5B
:1052580001D0FFF7B3FD00233B6000237B603B4692
:105268001946064803F00CFC0346002B01D0FFF753
:10527800A5FD00BF1837BD4680BD00BFF80100205E
:105288000008004080B584B000AF78607B681B6878
:10529800B3F1804F16D10023FB601A4B1B6C194ADF
:1052A80043F001031364174B1B6C03F00103FB600D
:1052B800FB68002200211C2000F001FA1C2000F0ED
:1052C8001AFA1AE07B681B680F4A934215D100232B
:1052D800BB600C4B1B6C0B4A43F004031364094B73
:1052E8001B6C03F00403BB60BB68002200211E2076
:1052F80000F0E5F91E2000F0FEF900BF1037BD46AA
:1053080080BD00BF003802400008004080B483B070
:1053180000AF0346FB71FB791B09DBB21A4692000A
:1053280013445B00DAB2FB7903F00F03DBB21344DA
:10533800DBB218460C37BD465DF8047B70470000A9
:1053480080B483B000AF0346FB71FB790D4AA2FB22
:105358000323DB08DBB21B0158B2FA79094BA3FB24
:105368000213D9080B469B000B445B00D31ADBB22F
:105378005BB203435BB2DBB218460C37BD465DF83F
:10538800047B7047CDCCCCCCDFF834D0FFF7CEFE11
:105398000C480D490D4A002302E0D458C450043388
:1053A800C4188C42F9D30A4A0A4C002301E013605E
:1053B8000432A242FBD303F0D3FCFDF7A1F97047F6
:1053C80000000220000000202C000020A8D00008C7
:1053D8002C00002044020020FEE7000080B500AF4A
:1053E8000E4B1B680D4A43F4007313600B4B1B688C
:1053F8000A4A43F480631360084B1B68074A43F466
:1054080080731360032000F04FF90F2000F008F8B4
:10541800FFF720FE0023184680BD00BF003C024075
:1054280080B582B000AF7860124B1A68124B1B78B7
:1054380019464FF47A73B3FBF1F3B2FBF3F3184652
:1054480000F067F90346002B01D001230EE07B68CA
:105458000F2B0AD8002279684FF0FF3000F02FF99F
:10546800064A7B681360002300E0012318460837CA
:10547800BD4680BD20000020280000202400002018
:1054880080B400AF064B1B781A46064B1B681344C2
:10549800044A136000BFBD465DF8047B704700BF37
:1054A800280000204002002080B400AF034B1B6896
:1054B8001846BD465DF8047B704700BF40020020D7
:1054C80080B584B000AF7860FFF7EEFFB8607B6806
:1054D800FB60FB68B3F1FF3F05D00A4B1B781A4607
:1054E800FB681344FB6000BFFFF7DEFF0246BB68A2
:1054F800D31AFA689A42F7D800BF00BF1037BD46E2
:1055080080BD00BF2800002080B485B000AF78605F
:105518007B6803F00703FB600C4BDB68BB60BA6871
:105528004FF6FF031340BB60FB681A02BB681343C6
:1055380043F0BF6343F40033BB60044ABB68D360E5
:1055480000BF1437BD465DF8047B704700ED00E0EE
:1055580080B400AF044BDB681B0A03F0070318464E
:10556800BD465DF8047B704700ED00E080B483B071
:1055780000AF0346FB7197F90730002B0BDBFB7973
:1055880003F01F02074997F907305B09012000FA69
:1055980002F241F8232000BF0C37BD465DF8047BBA
:1055A800704700BF00E100E080B483B000AF03465D
:1055B8003960FB7197F90730002B0ADB3B68DAB2D8
:1055C8000C4997F907301201D2B20B4483F8002333
:1055D8000AE03B68DAB20849FB7903F00F03043BA1
:1055E8001201D2B20B441A7600BF0C37BD465DF8E3
:1055F800047B704700E100E000ED00E080B489B072
:1056080000AFF860B9607A60FB6803F00703FB61DC
:10561800FB69C3F10703042B28BF0423BB61FB69A3
:105628000433062B02D9FB69033B00E000237B61AE
:105638004FF0FF32BB6902FA03F3DA43BB681A4042
:105648007B699A404FF0FF317B6901FA03F3D94334
:105658007B680B40134318462437BD465DF8047B2E
:105668007047000080B582B000AF78607B68013B6E
:10567800B3F1807F01D301230FE00A4A7B68013B25
:1056880053600F214FF0FF30FFF78EFF054B0022CC
:105698009A60044B07221A60002318460837BD4653
:1056A80080BD00BF10E000E080B582B000AF786038
:1056B8007868FFF729FF00BF0837BD4680BD80B571
:1056C80086B000AF0346B9607A60FB7300237B6144
:1056D800FFF73EFF78617A68B9687869FFF78EFF4F
:1056E800024697F90F3011461846FFF75DFF00BFD5
:1056F8001837BD4680BD80B582B000AF0346FB7148
:1057080097F907301846FFF731FF00BF0837BD4645
:1057180080BD80B582B000AF78607868FFF7A2FFDF
:10572800034618460837BD4680BD000080B489B0DE
:1057380000AF7860396000237B6100233B61002360
:10574800BB610023FB616BE10122FB6902FA03F3F1
:105758007B613B681B687A6913403B613A697B69E6
:105768009A4240F05A813B685B6803F00303012BBF
:1057780005D03B685B6803F00303022B30D17B68DC
:105788009B68BB61FB695B00032202FA03F3DB43FE
:10579800BA691340BB613B68DA68FB695B0002FACF
:1057A80003F3BA691343BB617B68BA699A607B6883
:1057B8005B68BB610122FB6902FA03F3DB43BA6948
:1057C8001340BB613B685B681B0903F00102FB697E
:1057D80002FA03F3BA691343BB617B68BA695A607A
:1057E8003B685B6803F00303032B17D07B68DB6817
:1057F800BB61FB695B00032202FA03F3DB43BA696E
:105808001340BB613B689A68FB695B0002FA03F3CB
:10581800BA691343BB617B68BA69DA603B685B6845
:1058280003F00303022B23D1FB69DA087B680832F3
:1058380053F82230BB61FB6903F007039B000F227A
:1058480002FA03F3DB43BA691340BB613B681A6988
:10585800FB6903F007039B0002FA03F3BA691343D9
:10586800BB61FB69DA087B680832B96943F8221022
:105878007B681B68BB61FB695B00032202FA03F3C8
:10588800DB43BA691340BB613B685B6803F0030202
:10589800FB695B0002FA03F3BA691343BB617B68D7
:1058A800BA691A603B685B6803F44033002B00F068
:1058B800B4800023FB60604B5B6C5F4A43F4804319
:1058C80053645D4B5B6C03F48043FB60FB685B4A8D
:1058D800FB699B08023352F82330BB61FB6903F074
:1058E80003039B000F2202FA03F3DB43BA69134058
:1058F800BB617B68524A93422BD07B68514A9342E2
:1059080025D07B68504A93421FD07B684F4A934208
:1059180019D07B684E4A934213D07B684D4A934214
:105928000DD07B684C4A934207D07B684B4A934220
:1059380001D107230EE008230CE006230AE0052323
:1059480008E0042306E0032304E0022302E0012325
:1059580000E00023FA6902F0030292009340BA695A
:105968001343BB613549FB699B080233BA6941F8A7
:1059780023203B4B9B68BB613B69DB43BA691340FF
:10598800BB613B685B6803F48013002B03D0BA69E2
:105998003B691343BB61324ABB699360304BDB6898
:1059A800BB613B69DB43BA691340BB613B685B6819
:1059B80003F40013002B03D0BA693B691343BB619E
:1059C800274ABB69D360264B5B68BB613B69DB43F5
:1059D800BA691340BB613B685B6803F40033002B72
:1059E80003D0BA693B691343BB611D4ABB69536065
:1059F8001B4B1B68BB613B69DB43BA691340BB6146
:105A08003B685B6803F48033002B03D0BA693B69B9
:105A18001343BB61124ABB691360FB690133FB6125
:105A2800FB690F2B7FF690AE00BF00BF2437BD4641
:105A38005DF8047B704700BF003802400038014021
:105A4800000002400004024000080240000C02402E
:105A5800001002400014024000180240001C0240DE
:105A6800003C014080B483B000AF78600B467B8077
:105A780013467B707B78002B03D07A887B689A6109
:105A880003E07B881A047B689A6100BF0C37BD4627
:105A98005DF8047B704780B485B000AF78600B4632
:105AA8007B807B685B69FB607A88FB6813401A041B
:105AB800FB68D9437B880B401A437B689A6100BF17
:105AC8001437BD465DF8047B7047000080B584B08C
