:020000040800F2
:1000000000000220F14300080D41000815410008DE
:100010001D410008254100082D4100080000000096
:100020000000000000000000000000003541000852
:100030004341000800000000514100085F410008F2
:10004000414400084144000841440008414400087C
:10005000414400084144000841440008414400086C
:10006000414400084144000841440008414400085C
:10007000414400084144000841440008414400084C
:10008000414400084144000841440008414400083C
:10009000414400084144000841440008414400082C
:1000A000414400084144000841440008414400081C
:1000B0006D410008414400088141000841440008A6
:1000C00041440008414400084144000841440008FC
:1000D00041440008414400084144000841440008EC
:1000E00041440008414400084144000841440008DC
:1000F00041440008414400084144000841440008CC
:1001000041440008414400084144000841440008BB
:1001100041440008414400084144000841440008AB
:10012000414400084144000841440008414400089B
:10013000414400084144000841440008414400088B
:10014000414400084144000841440008414400087B
:10015000414400084144000841440008414400086B
:10016000414400084144000841440008414400085B
:1001700041440008414400084144000800000000D8
:0801800041440008414400085D
:1001880010B5054C237833B9044B13B10448AFF3C9
:1001980000800123237010BD2C0000200000000007
:1001A800188F000808B5034B1BB103490348AFF388
:1001B800008008BD0000000030000020188F0008F3
:1001C80081F0004102E000BF83F0004330B54FEA00
:1001D80041044FEA430594EA050F08BF90EA020F6D
:1001E8001FBF54EA000C55EA020C7FEA645C7FEA00
:1001F800655C00F0E2804FEA5454D4EB5555B8BF23
:100208006D420CDD2C4480EA020281EA030382EA93
:10021800000083EA010180EA020281EA0303362D25
:1002280088BF30BD11F0004F4FEA01314FF4801CF8
:100238004CEA113102D0404261EB410113F0004F0A
:100248004FEA03334CEA133302D0524263EB4303C1
:1002580094EA050F00F0A780A4F10104D5F1200E5F
:100268000DDB02FA0EFC22FA05F2801841F10001BA
:1002780003FA0EF2801843FA05F359410EE0A5F18E
:1002880020050EF1200E012A03FA0EFC28BF4CF0BF
:10029800020C43FA05F3C01851EBE37101F0004575
:1002A80007D54FF0000EDCF1000C7EEB00006EEB82
:1002B8000101B1F5801F1BD3B1F5001F0CD349080C
:1002C8005FEA30004FEA3C0C04F101044FEA445263
:1002D80012F5800F80F09A80BCF1004F08BF5FEAEA
:1002E800500C50F1000041EB045141EA050130BDCA
:1002F8005FEA4C0C404141EB0101013C28BFB1F5DC
:10030800801FE9D291F0000F04BF01460020B1FA26
:1003180081F308BF2033A3F10B03B3F120020CDAF9
:100328000C3208DD02F1140CC2F10C0201FA0CF0D7
:1003380021FA02F10CE002F11402D8BFC2F1200C3C
:1003480001FA02F120FA0CFCDCBF41EA0C019040F2
:10035800E41AA2BF01EB0451294330BD6FEA04043B
:100368001F3C1CDA0C340EDC04F11404C4F1200226
:1003780020FA04F001FA02F340EA030021FA04F338
:1003880045EA030130BDC4F10C04C4F1200220FA8F
:1003980002F001FA04F340EA0300294630BD21FACD
:1003A80004F0294630BD94F0000F83F4801306BF93
:1003B80081F480110134013D4EE77FEA645C18BF87
:1003C8007FEA655C29D094EA050F08BF90EA020F1E
:1003D80005D054EA000C04BF1946104630BD91EA16
:1003E800030F1EBF0021002030BD5FEA545C05D119
:1003F8004000494128BF41F0004130BD14F5800458
:100408003CBF01F5801130BD01F0004545F0FE41CB
:1004180041F470014FF0000030BD7FEA645C1ABF00
:10042800194610467FEA655C1CBF0B46024650EA37
:10043800013406BF52EA033591EA030F41F4002163
:1004480030BD00BF90F0000F04BF0021704730B5E9
:100458004FF4806404F132044FF000054FF00001BE
:1004680050E700BF90F0000F04BF0021704730B57F
:100478004FF4806404F1320410F0004548BF404254
:100488004FF000013EE700BF42004FEAE2014FEAA9
:1004980031014FEA02701FBF12F07F4393F07F4F84
:1004A80081F06051704732F07F4208BF704793F087
:1004B8007F4F04BF41F40021704730B54FF460749A
:1004C80001F0004521F000411CE700BF50EA01029D
:1004D80008BF704730B54FF000050AE050EA010246
:1004E80008BF704730B511F0004502D5404261EBB6
:1004F80041014FF4806404F132045FEA915C3FF4F7
:10050800D8AE4FF003025FEADC0C18BF03325FEA93
:10051800DC0C18BF033202EBDC02C2F1200300FA44
:1005280003FC20FA02F001FA03FE40EA0E0021FA69
:1005380002F11444BDE600BF70B54FF0FF0C4CF457
:10054800E06C1CEA11541DBF1CEA135594EA0C0F09
:1005580095EA0C0F00F0DEF82C4481EA030621EA44
:100568004C5123EA4C5350EA013518BF52EA03357F
:1005780041F4801143F4801338D0A0FB02CE4FF031
:100588000005E1FB02E506F00042E0FB03E54FF061
:100598000006E1FB03569CF0000F18BF4EF0010E59
:1005A800A4F1FF04B6F5007F64F5407404D25FEA55
:1005B8004E0E6D4146EB060642EAC62141EA555108
:1005C8004FEAC52040EA5E504FEACE2EB4F1FD0C4A
:1005D80088BFBCF5E06F1ED8BEF1004F08BF5FEAC8
:1005E800500E50F1000041EB045170BD06F000467A
:1005F80046EA010140EA020081EA0301B4EB5C0427
:10060800C2BFD4EB0C0541EA045170BD41F480111E
:100618004FF0000E013C00F3AB8014F1360FDEBF43
:10062800002001F0004170BDC4F10004203C35DA1F
:100638000C341BDC04F11404C4F1200500FA05F3A2
:1006480020FA04F001FA05F240EA020001F0004243
:1006580021F0004110EBD37021FA04F642EB0601B9
:100668005EEA430E08BF20EAD37070BDC4F10C04E3
:10067800C4F1200500FA04F320FA05F001FA04F2A7
:1006880040EA020001F0004110EBD37041F1000193
:100698005EEA430E08BF20EAD37070BDC4F120059E
:1006A80000FA05F24EEA020E20FA04F301FA05F206
:1006B80043EA020321FA04F001F0004121FA04F2AE
:1006C80020EA020000EBD3705EEA430E08BF20EA7E
:1006D800D37070BD94F0000F0FD101F000464000B8
:1006E80041EB010111F4801F08BF013CF7D041EA3A
:1006F800060195F0000F18BF704703F0004652003E
:1007080043EB030313F4801F08BF013DF7D043EA0E
:100718000603704794EA0C0F0CEA135518BF95EAC4
:100728000C0F0CD050EA410618BF52EA4306D1D14B
:1007380081EA030101F000414FF0000070BD50EA6A
:10074800410606BF1046194652EA430619D094EAF4
:100758000C0F02D150EA013613D195EA0C0F05D1DE
:1007680052EA03361CBF104619460AD181EA030132
:1007780001F0004141F0FE4141F470014FF00000EA
:1007880070BD41F0FE4141F4780170BD70B54FF085
:10079800FF0C4CF4E06C1CEA11541DBF1CEA135505
:1007A80094EA0C0F95EA0C0F00F0A7F8A4EB0504E7
:1007B80081EA030E52EA03354FEA013100F08880DE
:1007C8004FEA03334FF0805545EA131343EA1263A7
:1007D8004FEA022245EA111545EA10654FEA00265C
:1007E8000EF000419D4208BF964244F1FD0404F515
:1007F800407402D25B084FEA3202B61A65EB030571
:100808005B084FEA32024FF480104FF4002CB6EB2D
:10081800020E75EB030E22BFB61A754640EA0C00AD
:100828005B084FEA3202B6EB020E75EB030E22BFED
:10083800B61A754640EA5C005B084FEA3202B6EB2E
:10084800020E75EB030E22BFB61A754640EA9C00ED
:100858005B084FEA3202B6EB020E75EB030E22BFBD
:10086800B61A754640EADC0055EA060E18D04FEA7B
:10087800051545EA16754FEA06164FEAC30343EA1B
:1008880052734FEAC2025FEA1C1CC0D111F4801FE8
:100898000BD141EA00014FF000004FF0004CB6E7E1
:1008A80011F4801F04BF01430020B4F1FD0C88BF80
:1008B800BCF5E06F3FF6AFAEB5EB030C04BFB6EB8B
:1008C800020C5FEA500C50F1000041EB045170BD7E
:1008D8000EF0004E4EEA113114EB5C04C2BFD4EBAB
:1008E8000C0541EA045170BD41F480114FF0000E2F
:1008F800013C90E645EA060E8DE60CEA135594EAAB
:100908000C0F08BF95EA0C0F3FF43BAF94EA0C0FAD
:100918000AD150EA01347FF434AF95EA0C0F7FF422
:1009280025AF104619462CE795EA0C0F06D152EA76
:1009380003353FF4FDAE1046194622E750EA41065A
:1009480018BF52EA43067FF4C5AE50EA41047FF46B
:100958000DAF52EA43057FF4EBAE12E74FF0FF3CD0
:1009680006E000BF4FF0010C02E000BF4FF0010CA1
:100978004DF804CD4FEA410C7FEA6C5C4FEA430C1A
:1009880018BF7FEA6C5C1BD001B050EA410C0CBF69
:1009980052EA430C91EA030F02BF90EA020F0020CB
:1009A800704710F1000F91EA030F58BF994208BF32
:1009B80090422CBFD8176FEAE37040F001007047EF
:1009C8004FEA410C7FEA6C5C02D150EA013C07D146
:1009D8004FEA430C7FEA6C5CD6D152EA033CD3D091
:1009E8005DF8040B704700BF8446104662468C468B
:1009F8001946634600E000BF01B5FFF7B7FF0028BE
:100A080048BF10F1000F01BD4DF808EDFFF7F4FFE6
:100A18000CBF012000205DF808FB00BF4DF808ED71
:100A2800FFF7EAFF34BF012000205DF808FB00BF94
:100A38004DF808EDFFF7E0FF94BF012000205DF8B6
:100A480008FB00BF4DF808EDFFF7CEFF94BF01206B
:100A580000205DF808FB00BF4DF808EDFFF7C4FF64
:100A680034BF012000205DF808FB00BF4FEA4102B7
:100A780012F5001215D211D56FF47873B3EB6252E8
:100A880012D94FEAC12343F0004343EA505311F00F
:100A9800004F23FA02F018BF404270474FF00000A1
:100AA800704750EA013005D111F0004008BF6FF0DF
:100AB800004070474FF00000704700BF4FEA410206
:100AC800B2F1E04324BFB3F5001CDCF1FE5C0DD9A4
:100AD80001F0004C4FEAC0024CEA5070B2F1004FEE
:100AE80040EB830008BF20F00100704711F0804FF1
:100AF80021D113F13872BCBF01F00040704741F4B6
:100B080080114FEA5252C2F11802C2F1200C10FAB9
:100B18000CF320FA02F018BF40F001004FEAC1239D
:100B28004FEAD32303FA0CFC40EA0C0023FA02F341
:100B38004FEA4303CCE77FEA625307D150EA013317
:100B48001EBF4FF0FE4040F44000704701F00040E7
:100B580040F0FE4040F40000704700BF53B94AB966
:100B6800002908BF00281CBF4FF0FF314FF0FF30AD
:100B780000F06AB9ADF1080C6DE904CE00F006F892
:100B8800DDF804E0DDE9022304B070472DE9F04701
:100B9800089D0C46002B4ED194468C458646B2FAE9
:100BA80082F262D94AB1C2F12003914020FA03F3DC
:100BB8000CFA02FC194300FA02FE4FEA1C471FFA1E
:100BC8008CF6B1FBF7F44FEA1E4307FB141143EA16
:100BD800014304FB06F199420AD91CEB030304F113
:100BE800FF3080F01281994240F20F81023C634449
:100BF800591A1FFA8EF3B1FBF7F007FB101143EAFD
:100C0800014300FB06F69E420AD91CEB030300F1E0
:100C1800FF3180F0FC809E4240F2F9806344023844
:100C28009B1B40EA044000211DB1D3400022C5E9C6
:100C38000032BDE8F0878B4205D90DB1C5E9000146
:100C480000210846F5E7B3FA83F1002946D1A3420B
:100C580002D39042C0F0F080861A64EB03030120AF
:100C6800002DE6D0C5E90063E3E7002A40F0908054
:100C7800A1EB0C044FEA1C481FFA8CF70121B4FBC6
:100C8800F8F64FEA1E4308FB164443EA044307FB01
:100C980006F0984208D91CEB030306F1FF3402D290
:100CA800984200F2CD8026461C1A1FFA8EF3B4FB38
:100CB800F8F008FB104443EA044300FB07F79F429F
:100CC80008D91CEB030300F1FF3402D29F4200F263
:100CD800B0802046DB1B40EA0640A5E7C1F12006AC
:100CE8008B4022FA06F71F4320FA06FC04FA01F3A8
:100CF80043EA0C03F44000FA01F8380C4FEA1349B0
:100D0800B4FBF0FE1FFA87FC00FB1E4449EA0444CA
:100D18000EFB0CF9A14502FA01F20AD93C190EF1B1
:100D2800FF3A80F08480A14540F28180AEF1020E46
:100D38003C44A4EB09041FFA83F9B4FBF0F300FB6D
:100D4800134449EA044403FB0CFCA44507D93C19A5
:100D580003F1FF3067D2A44565D9023B3C4443EA1E
:100D68000E40A0FB0293A4EB0C049C42CE469C468A
:100D780051D34ED055B1B8EB0E0364EB0C0404FA12
:100D880006F6CB401E43CC40C5E90064002150E77D
:100D9800C2F1200320FA03F10CFA02FC24FA03F34F
:100DA80094400C434FEA1C4800FA02FE1FFA8CF7E5
:100DB800B3FBF8F008FB1031230C43EA014300FBB6
:100DC80007F1994208D91CEB030300F1FF362CD236
:100DD80099422AD9023863445B1AA4B2B3FBF8F1EA
:100DE80008FB113344EA034401FB07F3A34208D983
:100DF8001CEB040401F1FF3613D2A34211D90239C6
:100E08006444E41A41EA004139E70446F0E608463A
:100E180006E7C845AED2B9EB020E63EB070C013802
:100E2800A8E73146EDE7034699E73046D4E7D646CA
:100E38007FE7634402384DE70646234608460FE736
:100E4800023E634430E700BF704700BF80B500AF83
:100E580001220821024803F035FE00BF80BD00BF13
:100E6800000C024080B584B000AF002208212F4852
:100E780003F028FE012208212C4803F023FE0A2350
:100E880002222B492B4805F0F3FD0023FB604FF4A9
:100E980000437B8100237B603FE07B68002B06DBFF
:100EA8007B68032B03DC7B680433FB6018E07B68FA
:100EB800032B07DD7B68072B04DC7B68C3F1070382
:100EC800FB600DE07B68072B06DD7B680B2B03DCE2
:100ED8007B680433FB6003E07B68C3F11703FB60A6
:100EE800134B1A887B8913409BB2002B05D0124AFA
:100EF800FB68002122F8131009E00F4AFB6832F85A
:100F08001330013399B20C4AFB6822F813107B891D
:100F18005B087B817B6801337B607B680F2BBCDDC2
:100F280000BF00BF1037BD4680BD00BF000C0240A7
:100F380068000020580100204800002080B500AF5C
:100F480000BF32230322D021084804F05FFA034689
:100F5800002BF6D1002000F009FA002000F03AFA40
:100F680000F06CFA00F090FA00BF80BDD4000020B9
:100F780080B588B004AF03460A46FB711346BB71BF
:100F8800BB79184603F00CFA0346FB73FB799AB257
:100F98000A2302930123019307F10F03009301230E
:100FA800D021034803F006FF00BF1037BD4680BDBF
:100FB800D400002080B584B004AF0A23029307232D
:100FC8000193314B009301230022D0212F4803F0D5
:100FD800EBFF2D4B1B78184603F0C8F903461A4659
:100FE8002B4B1A70284B5B78184603F0BFF9034661
:100FF8001A46274B5A70244B9B7803F03F03DBB209
:10100800184603F0B3F903461A46214B9A701E4B53
:10101800DB78184603F0AAF903461A461C4BDA7027
:10102800194B1B79184603F0A1F903461A46184BC9
:101038001A71154B5B7903F01F03DBB2184603F0F6
:1010480095F903461A46124B5A710F4B9B7918466D
:1010580003F08CF903461A460B4B5B79DB09DBB2CC
:10106800194689000B4419468800194603460B4463
:101078009B009BB213449BB203F5FA639AB2044BEC
:10108800DA8000BFBD4680BD78000020D400002073
:101098006C000020B0B586B004AF4FF000037B6051
:1010A8000A23029301230193FB1C009301231122BD
:1010B800D021304803F078FF0A23029301230193DB
:1010C800BB1C009301231222D0212A4803F06CFF95
:1010D800FB785BB2002B1FDBFB781846FFF7C2F9E1
:1010E80004460D46BB789B09DBB21846FFF7BAF9F0
:1010F8004FF00002204BFFF71FFA02460B4620462E
:101108002946FFF763F802460B4610461946FFF7D3
:10111800D5FC03467B6024E0FB785B421846FFF76A
:10112800A1F904460D46BB789B09DBB21846FFF7C8
:1011380099F94FF00002104BFFF7FEF902460B46F3
:1011480020462946FFF742F802460B461046194644
:10115800FFF7B4FC034607EE903AF1EE677AC7ED65
:10116800017A7B6807EE903AB0EE670A0837BD4609
:10117800B0BD00BFD40000200000D03F80B582B0D1
:1011880000AF0346FB71FB7919460020FFF7F0FE1C
:1011980000BF0837BD4680BD80B582B000AF0346AA
:1011A800FB71FB7919460120FFF7E2FE00BF083703
:1011B800BD4680BD80B588B004AF0346FB71FB799E
:1011C800184603F0EDF8034603F03F03DBB2FB7368
:1011D8000A2302930123019307F10F0300930123CC
:1011E8000222D021034803F0E5FD00BF1037BD46B9
:1011F80080BD00BFD400002080B582B000AF034698
:10120800FB71FB7919460320FFF7B2FE00BF0837D0
:10121800BD4680BD80B582B000AF0346FB71FB7947
:1012280019460420FFF7A4FE00BF0837BD4680BD5D
:1012380080B588B004AF0346FB710A2302930123EB
:10124800019307F10F03009301230522D0211448CD
:1012580003F0AAFEFB7B23F07F03DBB2FB73FB7971
:10126800184603F09DF803465BB203F01F035AB219
:10127800FB7B5BB213435BB2DBB2BB730A23029303
:101288000123019307F10E03009301230522D021C6
:10129800034803F08FFD00BF1037BD4680BD00BF77
:1012A800D400002080B588B004AF0346FB80FB88DB
:1012B8002B4AA2FB03125209642101FB02F29B1A7A
:1012C8009BB2DBB2184603F06BF80346BB73FB888E
:1012D800234AA2FB03235B099AB2224BA3FB021306
:1012E80019090B469B000B449B00D31A9BB2FB7356
:1012F8000A2302930123019307F10D0300930123AD
:101308000522D021184803F04FFE7B7B5BB203F027
:101318001F035AB2FB7BDB015BB213435BB2DBB248
:101328007B730A2302930123019307F10D030093B2
:1013380001230522D0210C4803F03CFD0A23029327
:101348000123019307F10E03009301230622D02104
:10135800054803F02FFD00BF1037BD4680BD00BF14
:101368001F85EB51CDCCCCCCD400002080B588B003
:1013780004AF0346FB710A2302930123019307F18B
:101388000F03009301230E22D021114803F00CFE15
:10139800FB7B5BB223F001035AB297F9073003F0E5
:1013A80001035BB213435BB2DBB2FB730A23029304
:1013B8000123019307F10F03009301230E22D0218B
:1013C800034803F0F7FC00BF1037BD4680BD00BFDF
:1013D800D400002080B588B004AF0346FB710A230F
:1013E80002930123019307F10F03009301230E22B7
:1013F800D021114803F0D8FDFB7B5BB223F0020338
:101408005AB2FB795B005BB203F002035BB2134391
:101418005BB2DBB2FB730A2302930123019307F14A
:101428000F03009301230E22D021034803F0C2FCCE
:1014380000BF1037BD4680BDD400002080B586B0FF
:1014480004AF0A23029301230193FB1D0093012398
:101458000F22D0210B4803F0A7FDFB7923F00103ED
:10146800DBB2FB710A23029301230193FB1D009356
:1014780001230F22D021034803F09CFC00BF08374A
:10148800BD4680BDD400002080B586B004AF0A23D5
:10149800029301230193FB1D009301230F22D02106
:1014A8000B4803F081FDFB7923F00203DBB2FB71EB
:1014B8000A23029301230193FB1D009301230F22AA
:1014C800D021034803F076FC00BF0837BD4680BD35
:1014D800D400002080B58EB000AF07F11C030022B5
:1014E8001A605A609A60DA601A615A619A613B46DA
:1014F80000221A605A609A60DA601A615A619A6129
:101508002F4B4FF020421A602D4B2E4A5A602C4B1D
:1015180000229A602A4B0022DA60294B00221A61C5
:10152800274B10225A61264B00229A61244B002235
:10153800DA61234B00221A62214B00225A62204BA7
:101548004FF480529A621E4B0022DA621C4B4FF411
:1015580080421A631A4B00225A63194B00229A637D
:10156800174B00225A640F23FB610F233B623C2375
:101578007B620023BB621023FB6211233B630023C1
:101588007B6308233B600F237B600923BB60002338
:10159800FB6010233B6111237B610023BB613A464A
:1015A80007F11C031946064805F06CFE0346002B9C
:1015B80001D002F033FC00BF3837BD4680BD00BF04
:1015C80080000020040100A080B586B000AF3B1D5C
:1015D80000221A605A609A60DA601A611C4B1B6814
:1015E800002B31D11A4B01221A6000233B60194BA2
:1015F8009B6B184A43F001039363164B9B6B03F0F4
:1016080001033B603B684FF688737B600223BB6035
:101618000023FB6003233B610C237B613B1D1946C0
:101628000D4803F0B3F84CF2B3737B600223BB6040
:101638000023FB6003233B610C237B613B1D1946A0
:10164800064803F0A3F800E000BF1837BD4680BD88
:10165800D00000200038024000100240000C024078
:1016680080B582B000AF7860FFF7AEFF00BF0837E3
:10167800BD4680BD80B58CB000AF07F11C030022C9
:101688001A605A609A60DA601A610023BB616F4B76
:101698001B6B6E4A43F0100313636C4B1B6B03F018
:1016A8001003BB61BB6900237B61684B1B6B674AF6
:1016B80043F004031363654B1B6B03F004037B6166
:1016C8007B6900233B61614B1B6B604A43F08003DD
:1016D80013635E4B1B6B03F080033B613B69002384
:1016E800FB605A4B1B6B594A43F001031363574B7A
:1016F8001B6B03F00103FB60FB680023BB60534BCB
:101708001B6B524A43F008031363504B1B6B03F0E7
:101718000803BB60BB6800237B604C4B1B6B4B4AC8
:1017280043F040031363494B1B6B03F040037B609A
:101738007B6800233B60454B1B6B444A43F0020324
:101748001363424B1B6B03F002033B603B680022B0
:1017580070213F4803F0B6F900224FF400513D488C
:1017680003F0B0F9002240213B4803F0ABF9002216
:101778004FF48071394803F0A5F900220821384850
:1017880003F0A0F97023FB6101233B6200237B6215
:101798000023BB6207F11C0319462D4802F0F6FF2F
:1017A8004FF40053FB6101233B6200237B6200235B
:1017B800BB6207F11C031946264802F0E7FFC02365
:1017C800FB6100233B6200237B6207F11C0319467F
:1017D800224802F0DBFF3023FB6100233B62002339
:1017E8007B6207F11C0319461A4802F0CFFF402319
:1017F800FB6101233B6200237B620023BB6207F18C
:101808001C031946144802F0C1FF4FF48073FB61B2
:1018180001233B6200237B620023BB6207F11C03A8
:1018280019460E4802F0B2FF0823FB6101233B6210
:1018380000237B620023BB6207F11C03194608489A
:1018480002F0A4FF00BF3037BD4680BD003802401B
:101858000010024000080240001802400000024048
:10186800000C024080B500AF124B134A1A60114BAE
:10187800124A5A600F4B00229A600E4B0022DA601F
:101888000C4B4FF480421A610A4B00225A61094BF3
:1018980000229A61074B0022DA61064B00221A6285
:1018A800044803F043F90346002B01D002F0B6FACE
:1018B80000BF80BDD400002000540040A086010075
:1018C80080B58AB000AF786007F1140300221A606F
:1018D8005A609A60DA601A617B681B68194A9342F9
:1018E8002BD100233B61184B1B6B174A43F00203B3
:1018F8001363154B1B6B03F002033B613B69C02369
:101908007B611223BB610023FB6103233B62042339
:101918007B6207F1140319460C4802F037FF0023D5
:10192800FB60094B1B6C084A43F400131364064B15
:101938001B6C03F40013FB60FB6800BF2837BD462F
:1019480080BD00BF0054004000380240000402403F
:1019580080B483B000AF0346FB80044AFB88138041
:1019680000BF0C37BD465DF8047B7047FEFF0F6073
:1019780080B483B000AF0346FB80044AFB885380E1
:1019880000BF0C37BD465DF8047B7047FEFF0F6053
:1019980080B483B000AF064B5B889BB2FB80FB88AA
:1019A8009BB218460C37BD465DF8047B704700BFF4
:1019B800FEFF0F6090B583B000AF0446084611469D
:1019C8001A462346FB800346BB800B467B801346A2
:1019D8003B802A20FFF7BCFFFB881B0A9BB21846F6
:1019E800FFF7C6FFFB88DBB29BB21846FFF7C0FFC4
:1019F8007B881B0A9BB21846FFF7BAFF7B88DBB2CD
:101A08009BB21846FFF7B4FF2B20FFF7A1FFBB8856
:101A18001B0A9BB21846FFF7ABFFBB88DBB29BB231
:101A28001846FFF7A5FF3B881B0A9BB21846FFF72D
:101A38009FFF3B88DBB29BB21846FFF799FF2C202B
:101A4800FFF786FF00BF0C37BD4690BD80B584B058
:101A580000AF0346FB80154B1B88013B9AB2134B22
:101A68005B88013B9BB200210020FFF7A3FF002306
:101A7800FB8111E00023BB8106E0FB881846FFF7D5
:101A880077FFBB890133BB81084B5B88BA899A42CF
:101A9800F3D3FB890133FB81044B1B88FA899A42F3
:101AA800E8D300BF00BF1037BD4680BD2801002025
:101AB80080B582B000AF0346FB800B46BB8013465F
:101AC8007B80BB88FA88B988F888FFF773FF7B8822
:101AD8001846FFF74DFF00BF0837BD4680BD90B5DB
:101AE8008DB000AF0446084611461A462346FB80CF
:101AF8000346BB800B467B8013463B800023BB62BA
:101B080000237B627A88FB88D31A3B623A88BB88B9
:101B1800D31AFB61FB88FB60BB88BB603B6A002B68
:101B280002DD01237B610BE03B6A002B02D100231D
:101B38007B6105E04FF0FF337B613B6A5B423B62B0
:101B4800FB69002B02DD01233B610BE0FB69002BE5
:101B580002D100233B6105E04FF0FF333B61FB6995
:101B68005B42FB613A6AFB699A4202DD3B6ABB61F0
:101B780001E0FB69BB610023FB852BE0FB689BB29E
:101B8800BA6891B2B7F840201846FFF791FFBA6AD1
:101B98003B6A1344BB627A6AFB6913447B62BA6A84
:101BA800BB699A4207DDBA6ABB69D31ABB62FA6895
:101BB8007B691344FB607A6ABB699A4207DD7A6ADB
:101BC800BB69D31A7B62BA683B691344BB60FB8D5F
:101BD8000133FB85FB8DBA699A42CFDA00BF00BF9B
:101BE8003437BD4690BD000090B587B000AF0446BD
:101BF800084611461A462346FB800346BB800B461F
:101C0800FB7013463B8000237B75FB883B8297F86B
:101C18002C305B08FB73FB7BDB08DBB21A46FB7BD3
:101C280003F00703DBB2002B14BF01230023DBB250
:101C380013449AB297F82C309BB212FB03F3BB8182
:101C4800FB78203BFB70FB7B9AB2FB8813449BB26A
:101C5800013B9CB297F82C309AB2BB8813449BB2D4
:101C6800013B9BB2B988F8882246FFF7A3FE002300
:101C78007B827AE097F82C300C2B28D097F82C3000
:101C8800102B08D1FA787B8A3C4912010A44134484
:101C98001B78FB751BE097F82C30182B0BD1FA78C2
:101CA800798A374813465B0013441B0103440B44ED
:101CB8001B78FB750BE097F82C30202B5AD1FA785B
:101CC8007B8A304992010A4413441B78FB75002330
:101CD800BB7544E097F83030002B20D1FA7DBB7DEE
:101CE80042FA03F303F00103002B04D03B881846A3
:101CF800FFF73EFE03E03B8D1846FFF739FE7B7D7C
:101D080001337B757B7DFA7BB3FBF2F101FB02F2B9
:101D18009B1ADBB2002B1FD100237B7522E0FA7DD2
:101D2800BB7D42FA03F303F00103002B05D03A8888
:101D3800B988FB881846FFF7BBFEFB880133FB8098
:101D4800FA883B8AD21AFB7B9A4205D13B8AFB80F0
:101D5800BB880133BB8005E0BB7D0133BB75BB7D10
:101D6800072BB7D97B8A01337B827A8ABB899A424F
:101D780080D300E000BF1C37BD4690BD388F0008F7
:101D880028950008F8A6000880B485B000AF03467F
:101D98000A46FB711346BB710123FB6004E0FA7924
:101DA800FB6802FB03F3FB60BB795A1EBA71002B78
:101DB800F5D1FB6818461437BD465DF8047B7047BB
:101DC80090B58BB004AF0446084611461A46234620
:101DD800FB800346BB800B467B8013467B70002349
:101DE800BB7597F830305B087B757B789AB27B7D42
:101DF8009BB212FB03F37B827B8A5B089BB2FA8857
:101E0800D31A3B8297F830305B08DBB21A46BB889E
:101E18009B1AFB810023FB755BE07C887A78FB7D4D
:101E2800D31ADBB2013BDBB219460A20FFF7ACFF3D
:101E38000346B4FBF3F12B4BA3FB0123DA0813464B
:101E48009B0013445B00CA1A13467B73BB7D002BAF
:101E580022D1FA7D7B78013B9A421DDA7B7B002BED
:101E680018D1FB7D9AB27B7D9BB212FB03F39AB229
:101E78003B8A134498B23A8DF98997F83430029323
:101E880097F830300193BB8D009313463022FFF74B
:101E9800ABFE1BE00123BB75FB7D9AB27B7D9BB239
:101EA80012FB03F39AB23B8A134498B27B7B30331C
:101EB800DAB23C8DF98997F83430029397F83030CC
:101EC8000193BB8D00932346FFF78EFEFB7D013304
:101ED800FB75FA7D7B789A429FD300BF00BF1C3701
:101EE800BD4690BDCDCCCCCC80B483B000AF03460A
:101EF800FB71FB791B09DBB203F00303DBB2002B98
:101F080007D00A4B4FF4A0721A80084BF0225A806F
:101F180006E0064BF0221A80044B4FF4A0725A8058
:101F280000BF0C37BD465DF8047B704728010020D0
:101F380080B500AF00224FF40051AA4802F0C2FD5C
:101F48004FF4FA7002F0ECFA01224FF40051A54860
:101F580002F0B8FD4FF4FA7002F0E2FA0020FFF741
:101F6800C3FFD320FFF7F4FCFFF712FD03461A4620
:101F78009D4B9A80FFF70CFD03461A469A4B9A80B0
:101F8800FFF706FD03461A46974B9A80964B9B88A7
:101F98001B029AB2944B9A80FFF7FAFC03461A4642
:101FA800914B9B8813439AB28F4B9A80CF20FFF7AF
:101FB800CFFC0020FFF7DCFCC120FFF7D9FC302064
:101FC800FFF7D6FCED20FFF7C3FC6420FFF7D0FC39
:101FD8000320FFF7CDFC1220FFF7CAFC8120FFF792
:101FE800C7FCE820FFF7B4FC8520FFF7C1FC1020F0
:101FF800FFF7BEFC7A20FFF7BBFCCB20FFF7A8FC5D
:102008003920FFF7B5FC2C20FFF7B2FC0020FFF7C2
:10201800AFFC3420FFF7ACFC0220FFF7A9FCF72047
:10202800FFF796FC2020FFF7A3FCEA20FFF790FCBF
:102038000020FFF79DFC0020FFF79AFCC020FFF767
:1020480087FC1B20FFF794FCC120FFF781FC0120CF
:10205800FFF78EFCC520FFF77BFC3020FFF788FCDC
:102068003020FFF785FCC720FFF772FCB720FFF789
:102078007FFC3620FFF76CFC0820FFF779FC3A203C
:10208800FFF766FC5520FFF773FCB120FFF760FCF3
:102098000020FFF76DFC1A20FFF76AFCB620FFF757
:1020A80057FC0A20FFF764FCA220FFF761FCF2202E
:1020B800FFF74EFC0020FFF75BFC2620FFF748FCEB
:1020C8000120FFF755FCE020FFF742FC0F20FFF747
:1020D8004FFC2A20FFF74CFC2820FFF749FC08207A
:1020E800FFF746FC0E20FFF743FC0820FFF740FCF3
:1020F8005420FFF73DFCA920FFF73AFC4320FFF7E7
:1021080037FC0A20FFF734FC0F20FFF731FC0020D2
:10211800FFF72EFC0020FFF72BFC0020FFF728FC20
:102128000020FFF725FCE120FFF712FC0020FFF755
:102138001FFC1520FFF71CFC1720FFF719FC0720D0
:10214800FFF716FC1120FFF713FC0620FFF710FC21
:102158002B20FFF70DFC5620FFF70AFC3C20FFF769
:1021680007FC0520FFF704FC1020FFF701FC0F20F7
:10217800FFF7FEFB3F20FFF7FBFB3F20FFF7F8FBD5
:102188000F20FFF7F5FB2B20FFF7E2FB0020FFF7FE
:10219800EFFB0020FFF7ECFB0120FFF7E9FB3F20F6
:1021A800FFF7E6FB2A20FFF7D3FB0020FFF7E0FB51
:1021B8000020FFF7DDFB0020FFF7DAFBEF20FFF739
:1021C800D7FB1120FFF7C4FB782002F0A9F92920DA
:1021D800FFF7BEFB01224FF48071044802F072FC45
:1021E80000BF80BD00080240280100200000024016
:1021F80080B584B000AFF860B9607A603B60FB6876
:102208009AB27B689BB2134498B2BB689AB23B6897
:102218009BB213449BB23A8B1946FFF749FCFB6803
:102228009AB27B689BB2D31A98B2BB689AB23B68E1
:102238009BB213449BB23A8B1946FFF739FCFB68F3
:102248009AB27B689BB2134498B2BB689AB23B6857
:102258009BB2D31A9BB23A8B1946FFF729FCFB684D
:102268009AB27B689BB2D31A98B2BB689AB23B68A1
:102278009BB2D31A9BB23A8B1946FFF719FCFB683D
:102288009AB23B689BB2134498B2BB689AB27B6817
:102298009BB213449BB23A8B1946FFF709FCFB68C3
:1022A8009AB23B689BB2D31A98B2BB689AB27B6861
:1022B8009BB213449BB23A8B1946FFF7F9FBFB68B4
:1022C8009AB23B689BB2134498B2BB689AB27B68D7
:1022D8009BB2D31A9BB23A8B1946FFF7E9FBFB680E
:1022E8009AB23B689BB2D31A98B2BB689AB27B6821
:1022F8009BB2D31A9BB23A8B1946FFF7D9FB00BFA2
:102308001037BD4680BD80B58AB002AFF860B960AD
:102318003B601346FB800023FB613B68BB613B6865
:102328005B00C3F103033B61BB6A002B4FD029E07C
:10233800FB697B610AE0FB8800937B69FA69B968ED
:10234800F868FFF755FF7B6901337B617A69BB69E0
:102358009A42F0DD3B69002B06DAFB699A003B697B
:10236800134406333B610AE0FA69BB69D31A9A0041
:102378003B6913440A333B61BB69013BBB61FB69A1
:102388000133FB61FA69BB699A42D1DD23E0FB881E
:102398000093BB69FA69B968F868FFF729FF3B69D8
:1023A800002B06DAFB699A003B69134406333B614C
:1023B8000AE0FA69BB69D31A9A003B6913440A33E5
:1023C8003B61BB69013BBB61FB690133FB61FA6996
:1023D800BB699A42DBDD00BF2037BD4680BD0000E7
:1023E80090B58BB004AFBA601A460346FB810B4622
:1023F800BB811346FB80FB89BB820023FB7548E049
:10240800FB7D002B45D1FA89264B1B88194697F886
:102418002C305B08DBB2CB1A9A423FDCBA89214BDD
:102428005B88194697F82C30CB1A9A4236DCBB6881
:102438001B78802B02D90123FB752AE0BB681B7827
:102448000D2B0BD197F82C309AB2BB891344BB8162
:10245800BB8AFB81BB680133BB6017E0BB681A7895
:10246800FC88B989F88997F83030029397F82C30AE
:1024780001933B8D00932346FFF7B6FB97F82C306A
:102488005B08DBB21A46FB891344FB81BB68013346
:10249800BB60BB681B78002BB2D100E000BF1C37C3
:1024A800BD4690BD2801002080B58CB004AFBA604D
:1024B8001A460346FB810B46BB811346FB8097F8FF
:1024C8002C305B08FB750023FB83BB68BB6110E005
:1024D800BB691B78802B06D9FB8B0233FB83BB6956
:1024E8000133BB6102E0FB8B0133FB83BB69013322
:1024F800BB61BB691B78002BEAD1FB7D9BB2FA8BD1
:1025080012FB03F3BB82BB8A5B089BB2FA89D31A1E
:102518007B8297F82C305B08DBB21A46BB899B1A82
:102528003B82FA88398A788A97F83030029397F88C
:102538002C3001933B8D00931346BA68FFF750FF88
:1025480000BF2037BD4680BD80B500AF01224021C5
:10255800024802F0B7FA00BF80BD00BF0018024071
:1025680080B500AF3F4B1B88DBB29AB23D4B1A8057
:102578003D4B1B881A463D4B9B5C1B021AB2394BDC
:102588001B881BB213431BB29AB2364B1A80364BC8
:102598001B88032B46D801A252F823F0B525000862
:1025A800D3250008F12500080F2600082D4B1B88AD
:1025B80043F0B0039AB22B4B1A802A4B1B8823F0A6
:1025C80040039AB2274B1A802DE0264B1B8843F014
:1025D800D0039AB2234B1A80224B1B8823F0200386
:1025E8009AB2204B1A801EE01E4B1B8843F0E00372
:1025F8009AB21C4B1A801B4B1B8823F010039AB20B
:10260800184B1A800FE0174B1B8843F070039AB2DF
:10261800144B1A80134B1B8823F080039AB2114B7A
:102628001A8000E000BF104B1B8801335A4203F0A8
:10263800030302F0030258BF53429AB20A4B1A80AE
:10264800002240210A4802F03DFA012302220549EE
:10265800084804F0CAF801224021054802F032FA7D
:1026680000BF80BD1A0000202E0100200C000020B1
:10267800001802405801002080B483B000AF034620
:10268800FB710B46BB7113467B71FB79092B08D88C
:10269800FB79074AD15CBB797A798A1AD1B2054AA3
:1026A800D15400BF0C37BD465DF8047B704700BFAE
:1026B800100000200C00002080B483B000AF034657
:1026C800FB71FB79012B07D10A4B1B8823F0080308
:1026D8009AB2084B1A8006E0064B1B8843F00803A1
:1026E8009AB2044B1A8000BF0C37BD465DF8047BD4
:1026F800704700BF1A00002080B483B000AF0346C3
:10270800FB71FB79044A0021D15400BF0C37BD4648
:102718005DF8047B704700BF0C00002080B483B0D4
:1027280000AF0346FB71FB79052B10D9FB79082B09
:102738000DD8FB79063B012202FA03F31AB2074BC4
:102748001B881BB213431BB29AB2044B1A8000BFFA
:102758000C37BD465DF8047B704700BF1A000020A7
:1027680080B483B000AF0346FB71FB79052B12D907
:10277800FB79082B0FD8FB79063B012202FA03F3F9
:102788001BB2DB431AB2074B1B881BB213401BB2A8
:102798009AB2044B1A8000BF0C37BD465DF8047B23
:1027A800704700BF1A00002080B58EB00EAF01F050
:1027B80045FE00F0F3FCFEF75DFF01F0F9FC01F0C7
:1027C80043FD01F0F9FBFEF785FEFFF74BF800F03B
:1027D80059FD32214FF47A7001F058FB4FF4FA7129
:1027E800002001F035FB01F08BFB0346002B03D0E2
:1027F800FEF738FBFFF7B4FEAB4B1B78072B00F254
:10280800A78401A252F823F0312800085F280008A5
:10281800593100081929000863310008633100089C
:1028280063310008633100080120FFF745FF9F4B23
:1028380002939F4B01939F4B00939F4B9F4AA04944
:10284800A04800F02FFDA04B00221A72964B0322DD
:102858001A7000F089BC9D4B1A78934B1B789A42EA
:102868000CD04FF6FF70FFF7F1F864226E21782044
:1028780000F046FD8C4B1A78944B1A7001F024FB3B
:102888000346002B00F06C8400F0F2FCFEF792FB8C
:10289800002304934FF4784303931F2302938C4B34
:1028A80001938C4B0093884B64226E21782000F0B2
:1028B800DBFDFEF7EFFBF0EE407A00230D930023DB
:1028C8000C9300230B9300230A93002309930023FE
:1028D80008930023079318230693202305937E4B20
:1028E80004937E4B03937E4B02937E4B0193784B6C
:1028F8000093B0EE670A774B734AF021782001F015
:10290800E3F8734A7349704801F008FA00F028BCEC
:102918006E4B1A78644B1B789A422AD0FEF74AFB12
:10292800694B1A78674B1A70674B5A78654B5A701F
:10293800654B9A78634B9A70634BDA78614BDA701F
:10294800614B1A795F4B1A715F4B5A795D4B5A711B
:102958005D4BDA885B4BDA804FF6FF70FFF776F84D
:1029680064226E21782000F0CBFC4F4B1A78574B2D
:102978001A705D4B1B78062B00F2CE8301A252F829
:1029880023F000BFA9290008052B0008292C0008FE
:10299800812D0008612E0008412F00084D300008E5
:1029A800524B1A78504B1B789A4244D047F67C53C6
:1029B800049347F67C5303934FF4784302933F4BB9
:1029C80001933F4B00933F4B64226E21782000F027
:1029D8004BFD3A4A3A493B4801F0A0F9FEF75AFB49
:1029E800F0EE407A00230D9300230C9300230B9301
:1029F80000230A9300230993002308934FF4784394
:102A080007931823069320230593284B0493284BF8
:102A18000393284B0293284B0193284B0093B0EE65
:102A2800670A274B274AF021782001F04DF82E4BF2
:102A38001A782E4B1A7001F047FA0346002B1FD064
:102A48002B4B1B6801332A4A1360294B1B6803F080
:102A58000303002B09D10620FFF782FE0720FFF7AA
:102A68007FFE0820FFF77CFE0AE0214B1B6803F07D
:102A78000103002B04D1114A1149124801F04EF903
:102A88001C4BDA8A1C4BA3FB021319090B461B01CA
:102A98005B1A5B00D31A9BB2012B40F03083124BB8
:102AA80001221A702BE300BF30010020060000202D
:102AB8000500002004000020030000200200002080
:102AC80001000020000000206C00002031010020DF
:102AD8006E0000206D0000207200002071000020B0
:102AE800700000206F000020320100201C00002030
:102AF800340100204800002089888888914B1A7882
:102B0800914B1B789A4244D047F67C5304934FF478
:102B18007843039347F67C5302938C4B01938C4B79
:102B280000938C4B64226E21782000F09DFC874A2C
:102B38008749884801F0F2F8FEF7ACFAF0EE407ADF
:102B480000230D9300230C9300230B9300230A9377
:102B5800002309934FF4784308930023079318231D
:102B68000693202305937C4B04937C4B03937C4B67
:102B780002937C4B0193754B0093B0EE670A744B3C
:102B8800744AF021782000F09FFF6F4B1A786D4B44
:102B98001A7001F099F90346002B1CD0724B1B6880
:102BA8000133714A1360704B1B6803F00303002B59
:102BB80006D10220FFF7A0FD0320FFF79DFD0AE0E4
:102BC800694B1B6803F00103002B04D15F4A60497D
:102BD800604801F0A3F8654BDA8A654BA3FB021342
:102BE80019090B461B015B1A5B00D31A9BB2012B18
:102BF80003D1554B02221A7083E25C4BDA8B5C4B93
:102C0800A3FB021319090B461B015B1A5B00D31ABD
:102C18009BB2012B40F075824B4B00221A7070E278
:102C2800484B1A78484B1B789A4244D04FF4784363
:102C3800049347F67C53039347F67C530293434B24
:102C48000193434B0093434B64226E21782000F09C
:102C58000BFC3E4A3E493F4801F060F8FEF71AFA7D
:102C6800F0EE407A00230D9300230C9300230B937E
:102C780000230A934FF47843099300230893002311
:102C880007931823069320230593334B0493334B60
:102C98000393334B0293334B01932C4B0093B0EEC9
:102CA800670A2B4B2B4AF021782000F00DFF264BAA
:102CB8001A78244B1A7001F007F90346002B1CD030
:102CC8002C4B1B6801332B4A13602A4B1B6803F0FB
:102CD8000303002B06D10020FFF70EFD0120FFF7AC
:102CE8000BFD0AE0234B1B6803F00103002B04D102
:102CF800164A1749174801F011F81C4BDA8A1C4B81
:102D0800A3FB021319090B461B015B1A5B00D31ABC
:102D18009BB2012B03D10C4B03221A70F3E1134B26
:102D2800DA8B134BA3FB021319090B461B015B1A21
:102D38005B00D31A9BB2012B40F0E581024B0122C4
:102D48001A70E0E11C00002032010020020000207F
:102D580001000020000000200600002005000020DF
:102D68000400002003000020380100204800002053
:102D7800898888883C010020A74B1A78A74B1B78C4
:102D88009A4244D047F67C53049347F67C53039306
:102D980047F67C530293A24B0193A24B0093A24B9C
:102DA80064226E21782000F05FFB9D4A9D499E4871
:102DB80000F0B4FFFEF76EF9F0EE407A00230D93B1
:102DC80000230C9300230B934FF478430A930023BA
:102DD80009930023089300230793182306932023BD
:102DE8000593924B0493924B0393924B0293924B0D
:102DF80001938B4B0093B0EE670A8A4B8A4AF02105
:102E0800782000F061FE854B1A78834B1A708B4B43
:102E1800DA8A8B4BA3FB021319090B461B015B1AB9
:102E28005B00D31A9BB2012B03D17C4B04221A708E
:102E38006BE1824BDA8B824BA3FB021319090B4619
:102E48001B015B1A5B00D31A9BB2012B40F05D811A
:102E5800724B02221A7058E16F4B1A786F4B1B782D
:102E68009A4244D047F67C53049347F67C53039325
:102E780047F67C5302936A4B01936A4B00936A4B63
:102E880064226E21782000F0EFFA654A65496648A9
:102E980000F044FFFEF7FEF8F0EE407A00230D93B1
:102EA80000230C934FF478430B9300230A930023D9
:102EB80009930023089300230793182306932023DC
:102EC80005935A4B04935A4B03935A4B02935A4B0C
:102ED8000193534B0093B0EE670A524B524AF021CC
:102EE800782000F0F1FD4D4B1A784B4B1A70534B7C
:102EF800DA8A534BA3FB021319090B461B015B1A11
:102F08005B00D31A9BB2012B03D1444B05221A70E4
:102F1800FDE04A4BDA8B4A4BA3FB021319090B4617
:102F28001B015B1A5B00D31A9BB2012B40F0EF80A8
:102F38003A4B03221A70EAE0374B1A78374B1B7862
:102F48009A4244D047F67C53049347F67C53039344
:102F580047F67C530293324B0193324B0093324B2A
:102F680064226E21782000F07FFA2D4A2D492E48E0
:102F780000F0D4FEFEF78EF8F0EE407A00230D93B1
:102F88004FF478430C9300230B9300230A930023F8
:102F980009930023089300230793182306932023FB
:102FA8000593224B0493224B0393224B0293224B0B
:102FB80001931B4B0093B0EE670A1A4B1A4AF02193
:102FC800782000F081FD154B1A78134B1A701B4BB3
:102FD800DA8A1B4BA3FB021319090B461B015B1A68
:102FE8005B00D31A9BB2012B03D10C4B06221A703B
:102FF8008FE0124BDA8B124BA3FB021319090B4615
:103008001B015B1A5B00D31A9BB2012B40F0818035
:10301800024B04221A707CE01C00002032010020C0
:10302800020000200100002000000020060000200F
:1030380005000020040000200300002048000020B4
:1030480089888888494B1A78494B1B789A4244D01A
:1030580047F67C53049347F67C53039347F67C5317
:103068000293444B0193444B0093444B64226E21DA
:10307800782000F0F9F93F4A3F49404800F04EFEF9
:10308800FEF708F8F0EE407A4FF478430D930023EA
:103098000C9300230B9300230A9300230993002326
:1030A8000893002307931823069320230593344B92
:1030B8000493344B0393344B0293344B01932D4BBD
:1030C8000093B0EE670A2C4B2C4AF021782000F0D0
:1030D800FBFC274B1A78254B1A702D4BDA8B2D4B9E
:1030E800A3FB021319090B461B015B1A5B00D31AD9
:1030F8009BB2012B0FD11E4B05221A700BE000BFAB
:103108000AE000BF08E000BF06E000BF04E000BF1F
:1031180002E000BF00E000BF1D4B1B8B002B0FD04F
:10312800174B0293174B0193174B0093174B114AF8
:103138001149124800F0B6F8174B01221A7012E034
:10314800134B9B8B002B0ED0134B01221A700AE0F5
:10315800114B00221A70FFF746BB00BFFFF743BBB5
:1031680000BFFFF740BB00BFFFF73DBB1C000020BE
:103178003201002002000020010000200000002091
:1031880006000020050000200400002003000020A5
:1031980048000020898888883001002080B594B0D4
:1031A80000AF07F1200330220021184604F000FE8A
:1031B80007F10C0300221A605A609A60DA601A61FB
:1031C8000023BB60284B1B6C274A43F080531364D1
:1031D800254B1B6C03F08053BB60BB6800237B60EE
:1031E800224B1B68214A43F4804313601F4B1B6822
:1031F80003F480437B607B6802233B620123FB620C
:1032080010233B630223BB630023FB6308233B6457
:10321800A8237B640223BB640423FB6407F1200317
:10322800184602F0D5FD0346002B01D000F0F6FD4C
:103238000F23FB6002233B6100237B614FF4A05303
:10324800BB614FF4A053FB6107F10C03052118463D
:1032580003F036F80346002B01D000F0DFFD00BF75
:103268005037BD4680BD00BF0038024000700040A6
:1032780080B500AF1021024801F03DFC00BF80BDC1
:103288000010024080B500AF00F0CEFD00F0D6FD82
:10329800FEF74EFEFFF758F9FDF750FEFDF7D6FD95
:1032A80000BF80BD80B584B000AFF860B9607A60B7
:1032B8003B60FB681B781846FDF760FFBB681B780E
:1032C8001846FDF769FF7B681B781846FDF772FF03
:1032D8003B681B781846FDF78FFFBB691B781846BB
:1032E800FDF798FFFB691B781846FDF7A1FF3B6ABD
:1032F8001B881846FDF7D6FF00BF1037BD4680BDB6
:103308002DE9B04F8EB004AFF860B9607A60182329
:1033180087F823307B680233012200921F22B968A4
:10332800F868FEF7F0FF012300937B684FF6FF7201
:10333800B968F868FEF7E7FF00237B6286E07A6ADF
:1033480013461B019B1A5B001846FDF78BF844A334
:10335800D3E90023FDF7F0F802460B46104619465C
:10336800FDF7ACFB0346FB61F868FDF77BF8804688
:1033780089467B680F3B1846FDF774F882468B46F2
:10338800F869FDF781F802460B4643EC102B04F070
:103398008FFD53EC102B50465946FDF7CDF80246E9
:1033A8000B4640464946FCF711FF02460B461046BD
:1033B8001946FDF75BFB0346BB61B868FDF752F899
:1033C800804689467B680F3B1846FDF74BF88246D6
:1033D8008B46F869FDF758F802460B4643EC102B6C
:1033E80004F012FD53EC102B144683F000452246DE
:1033F8002B4650465946FDF79FF802460B46404675
:103408004946FCF7E3FE02460B4610461946FDF70F
:103418002DFB03467B61BB6998B27B6999B27B6AD5
:10342800002B02D07B6A9AB200E00C22012303939E
:1034380097F8233002934FF6FF730193002300930C
:103448000223FEF7BDFC7B6A01337B627B6A0B2B90
:103458007FF775AF00BF00BF2837BD46BDE8B08F06
:10346800399D52A246DF913F2DE9B04F92B002AF8D
:1034780078633963FA62BB62786BFCF7F3FF8046C6
:103488008946FB6A1E3B1846FCF7ECFF04460D46CE
:10349800CF4B1B681846FCF7F7FF02460B4643EC78
:1034A800102B04F005FD53EC102B20462946FDF7A0
:1034B80043F802460B4640464946FCF787FE02465B
:1034C8000B4610461946FDF7D1FA0346FB63386BE5
:1034D800FCF7C8FF80468946FB6A1E3B1846FCF786
:1034E800C1FF04460D46BA4B1B681846FCF7CCFFD3
:1034F80002460B4643EC102B04F086FC53EC102BD1
:10350800924683F0004B52465B4620462946FDF71B
:1035180013F802460B4640464946FCF757FE02465A
:103528000B4610461946FDF7A1FA0346BB637B6BB1
:103538009CB23B6B98B2FB6B99B2BB6B9AB24FF6DD
:10354800FF73009313460A4601462046FEF7C7FA62
:10355800BB6A1B781A4613465B0013445B00184687
:10356800FCF780FF98A3D3E90023FCF7E5FF0246A8
:103578000B4610461946FDF7A1FA0346944A136014
:10358800786BFCF76FFF80468946FB6A1E3B18463E
:10359800FCF768FF04460D468D4B1B681846FCF780
:1035A80073FF02460B4643EC102B04F081FC53ECEE
:1035B800102B20462946FCF7BFFF02460B46404623
:1035C8004946FCF703FE02460B4610461946FDF72E
:1035D8004DFA0346FB63386BFCF744FF8046894687
:1035E800FB6A1E3B1846FCF73DFF04460D46784B28
:1035F8001B681846FCF748FF02460B4643EC102BA5
:1036080004F002FC53EC102B3A6283F000437B6217
:10361800D7E9082320462946FCF78EFF02460B46C9
:1036280040464946FCF7D2FD02460B46104619466D
:10363800FDF71CFA0346BB637B6B98B23B6B99B2F0
:10364800FB6B9AB2BB6B9CB2B7F868300093234609
:10365800FEF745FA5F4B93ED007A5D4BD3ED007AA8
:10366800B4EE677AF1EE10FA68D0786BFCF7FAFEE0
:1036780080468946FB6A283B1846FCF7F3FE044659
:103688000D46544B1B681846FCF7FEFE02460B46D7
:1036980043EC102B04F00CFC53EC102B204629466D
:1036A800FCF74AFF02460B4640464946FCF78EFDAA
:1036B80002460B4610461946FDF7D8F90346FB6348
:1036C800386BFCF7CFFE80468946FB6A283B1846D4
:1036D800FCF7C8FE04460D463E4B1B681846FCF72F
:1036E800D3FE02460B4643EC102B04F08DFB53EC43
:1036F800102BBA6183F00043FB61D7E9062320460B
:103708002946FCF719FF02460B4640464946FCF796
:103718005DFD02460B4610461946FDF7A7F903461C
:10372800BB637B6B98B23B6B99B2FB6B9AB2BB6B7A
:103738009BB24FF6FF740094FEF7D1F93B6E1B78ED
:103748001A4613465B0013445B001846FCF78AFED2
:103758001DA3D3E90023FCF7EFFE02460B461046F3
:103768001946FDF7ABF903461A4A1360786BFCF764
:1037780079FE80468946FB6A283B1846FCF772FEAC
:1037880004460D46134B1B681846FCF77DFE02469F
:103798000B4643EC102B04F08BFB53EC102B20460C
:1037A8002946FCF7C9FE02460B4640464946FCF747
:1037B8000DFD02460B4610461946FDF757F903461C
:1037C800FB63386B08E000BF399D52A246DF913F8A
:1037D8004001002044010020FCF744FE04460D4649
:1037E800FB6A283B1846FCF73DFE80468946B04BED
:1037F8001B681846FCF748FE02460B4643EC102BA4
:1038080004F002FB53EC102B3A6183F000437B6118
:10381800D7E9042340464946FCF78EFE02460B468C
:1038280020462946FCF7D2FC02460B4610461946AC
:10383800FDF71CF90346BB637B6B98B23B6B99B2EF
:10384800FB6B9AB2BB6B9CB2B7F86C300093234603
:10385800FEF745F9974B93ED007A974BD3ED007A35
:10386800B4EE677AF1EE10FA73D0924B93ED007ACA
:103878008F4BD3ED007AB4EE677AF1EE10FA68D088
:10388800786BFCF7EFFD04460D46FB6A323B1846A1
:10389800FCF7E8FD80468946864B1B681846FCF70E
:1038A800F3FD02460B4643EC102B04F001FB53ECEE
:1038B800102B40464946FCF73FFE02460B46204681
:1038C8002946FCF783FC02460B4610461946FDF7CD
:1038D800CDF80346FB63386BFCF7C4FD04460D4680
:1038E800FB6A323B1846FCF7BDFD80468946714BA2
:1038F8001B681846FCF7C8FD02460B4643EC102B24
:1039080004F082FA53EC102BBA6083F00043FB609A
:10391800D7E9022340464946FCF70EFE02460B460D
:1039280020462946FCF752FC02460B46104619462B
:10393800FDF79CF80346BB637B6B98B23B6B99B26F
:10394800FB6B9AB2BB6B9BB24FF6FF740094FEF709
:10395800C6F87B6E1A78594BA3FB0213D9080B469D
:103968005B000B449B00D31ADBB21846FCF77AFDC8
:1039780004460D463B6E1B781846FCF773FD4FF066
:1039880000024F4BFCF702FF02460B462046294631
:10399800FCF71CFC02460B46104619464FF0000285
:1039A800484BFCF7C9FD02460B46104619463EA394
:1039B800D3E90023FCF7C0FD02460B461046194622
:1039C800FDF77CF803463B4A1360786BFCF74AFD29
:1039D80004460D46FB6A323B1846FCF743FD804619
:1039E8008946344B1B681846FCF74EFD02460B46C9
:1039F80043EC102B04F05CFA53EC102B404649467C
:103A0800FCF79AFD02460B4620462946FCF7DEFBEA
:103A180002460B4610461946FDF728F80346FB6395
:103A2800386BFCF71FFD04460D46FB6A323B18460F
:103A3800FCF718FD804689461E4B1B681846FCF7A4
:103A480023FD02460B4643EC102B04F0DDF953EC42
:103A5800102B3A6083F000437B60D7E9002340468F
:103A68004946FCF769FD02460B4620462946FCF705
:103A7800ADFB02460B4610461946FCF7F7FF034616
:103A8800BB637B6B98B23B6B99B2FB6B9AB2BB6B17
:103A98009CB2B7F8703000932346FEF720F800BFB9
:103AA8004037BD46BDE8B08F399D52A246DF913FF1
:103AB800440100204801002040010020ABAAAAAA26
:103AC80000004E4000003E4080B58AB004AF7861E7
:103AD8003961FA60BB6087ED010A7B699AB297F891
:103AE80034309BB25B009BB2D31A98B23B6999B24F
:103AF8003B6A1B781A460023039397F834300293E5
:103B08004FF6FF730193B7F8443000930223FEF792
:103B180057F97B6998B23B6999B2BB681B781A461A
:103B28000023039397F8343002934FF6FF73019301
:103B3800B7F8403000930223FEF742F997F8343083
:103B48009BB25B009AB27B699BB2134498B23B6903
:103B580099B2FB681B781A460023039397F8343010
:103B680002934FF6FF730193BB8F00930223FEF776
:103B780027F997F834309AB27B699BB2134498B20C
:103B88003B6999B20123029397F8343001934FF6B9
:103B9800FF73009300235F4AFEF786FC7B699AB2A5
:103BA80097F834309BB25B009BB2D31A9AB297F85D
:103BB80034309BB2134498B23B6999B20123029303
:103BC80097F8343001934FF6FF7300930023514A5E
:103BD800FEF76AFC7B699AB297F838309BB25B00B3
:103BE8009BB2D31A98B297F834309AB23B699BB219
:103BF800134499B2BB6A1B781A460023039397F8BB
:103C0800383002934FF6FF730193B7F84C300093A6
:103C18000223FEF7D5F87B6998B297F834309AB248
:103C28003B699BB2134499B2FB6A1B781A4600237E
:103C3800039397F8383002934FF6FF730193B7F860
:103C4800503000930223FEF7BBF897F838309BB248
:103C58005B009AB27B699BB213449BB297F83820F9
:103C68005208D2B2134498B297F834309AB23B69EA
:103C78009BB2134499B23B6B1A880023039397F8BD
:103C8800383002934FF6FF730193B7F8543000931E
:103C98000423FEF795F897F838309AB27B699BB2FF
:103CA800134498B297F834309AB23B699BB21344E4
:103CB80099B20123029397F8383001934FF6FF73B6
:103CC80000930023144AFEF7EFFB7B699AB297F83A
:103CD80038309BB25B009BB2D31A9AB297F838304F
:103CE8009BB2134498B297F834309AB23B699BB2AE
:103CF800134499B20123029397F8383001934FF691
:103D0800FF7300930023044AFEF7CEFB00BF183769
:103D1800BD4680BD308F0008348F000880B584B060
:103D280000AFF860B9607A60FB681B783A4AA2FB7A
:103D38000323DB08DBB203F00103002B03D00620CA
:103D4800FEF7ECFC02E00620FEF70AFDFB681B7894
:103D5800314AA2FB0323DB08DBB25B08DBB203F0CA
:103D68000103002B03D00720FEF7D8FC02E0072050
:103D7800FEF7F6FCFB681B78274AA2FB0323DB0847
:103D8800DBB29B08DBB203F00103002B03D0082051
:103D9800FEF7C4FC02E00820FEF7E2FC7B681B7813
:103DA8001D4AA2FB0323DB08DBB2002200211846D0
:103DB800FEF762FC7B681A78174BA3FB0213D9083D
:103DC8000B469B000B445B00D31ADBB20022012197
:103DD8001846FEF751FCBB681B780F4AA2FB032369
:103DE800DB08DBB2002202211846FEF745FCBB685F
:103DF8001A78094BA3FB0213D9080B469B000B4406
:103E08005B00D31ADBB2002203211846FEF734FC0C
:103E180000BF1037BD4680BDCDCCCCCC80B400AF40
:103E280072B600BF00BFFDE780B500AF024803F0DF
:103E3800C1FA00BF80BD00BFB001002080B500AF4F
:103E4800024803F0B7FA00BF80BD00BFF8010020A8
:103E580080B483B000AF03460A46FB801346BB809C
:103E6800074ABB881380074AFB881380064B002249
:103E78001A7000BF0C37BD465DF8047B704700BF61
:103E8800500100204E0100204C01002080B483B076
:103E980000AF03460A46FB801346BB80074ABB882F
:103EA8001380074AFB881380064B00221A7000BF54
:103EB8000C37BD465DF8047B704700BF56010020F3
:103EC800540100205201002080B400AF094B1B7838
:103ED800002B08D0074B00221A70074B1A88074B93
:103EE8001A80012300E000231846BD465DF8047BD4
:103EF800704700BF4C010020500100204E010020F7
:103F080080B400AF094B1B78002B08D0074B002268
:103F18001A70074B1A88074B1A80012300E0002308
:103F28001846BD465DF8047B704700BF520100206B
:103F3800560100205401002080B582B000AF78609F
:103F48007B681B68B3F1804F10D1164B1B88002B80
:103F580005D0144B1B88013B9AB2124B1A80114BA7
:103F68001B88002B02D1104B01221A707B681B683A
:103F78000E4A934212D10E4B1B88002B05D00C4BD6
:103F88001B88013B9AB20A4B1A80094B1B88002BED
:103F980002D1084B01221A70FEF7E2FA00BF083777
:103FA800BD4680BD4E0100204C01002000080040A5
:103FB800540100205201002080B500AF174B184A69
:103FC8001A60164B4FF482725A60144B00229A60A2
:103FD800124B0022DA60114B00221A610F4B0022AB
:103FE8005A610E4B4FF400729A610C4B0022DA6151
:103FF8000A4B00221A62094B00225A62074B002220
:104008009A62064B0A22DA62044802F065FB03460C
:10401800002B01D0FFF702FF00BF80BD5801002030
:104028000030014080B58AB000AF786007F1140312
:1040380000221A605A609A60DA601A617B681B680D
:10404800194A93422BD100233B61184B5B6C174AEA
:1040580043F480535364154B5B6C03F480533B610A
:104068003B690023FB60114B1B6B104A43F00203B2
:1040780013630E4B1B6B03F00203FB60FB683823D2
:104088007B610223BB610023FB6103233B620523A1
:104098007B6207F114031946054800F077FB00BF5F
:1040A8002837BD4680BD00BF0030014000380240BF
:1040B8000004024080B483B000AF00237B60104B43
:1040C8005B6C0F4A43F4804353640D4B5B6C03F401
:1040D80080437B607B6800233B60094B1B6C084A6C
:1040E80043F080531364064B1B6C03F080533B6012
:1040F8003B6800BF0C37BD465DF8047B704700BFC6
:104108000038024080B400AF00BFFDE780B400AFC4
:1041180000BFFDE780B400AF00BFFDE780B400AF8B
:1041280000BFFDE780B400AF00BFFDE780B400AF7B
:1041380000BFBD465DF8047B704780B400AF00BF88
:10414800BD465DF8047B704780B400AF00BFBD4634
:104158005DF8047B704780B500AF00F0C1F900BF7F
:1041680080BD000080B500AF024803F093F900BF9E
:1041780080BD00BFB001002080B500AF024803F049
:1041880089F900BF80BD00BFF801002080B400AFEE
:10419800064BD3F88830054A43F47003C2F88830D8
:1041A80000BFBD465DF8047B704700BF00ED00E02E
:1041B80080B586B000AF07F1080300221A605A6084
:1041C8009A60DA603B4600221A605A601D4B4FF035
:1041D80080421A601B4B42F2CF025A60194B0022F0
:1041E8009A60184B0922DA60164B00221A61154BA7
:1041F80000229A61134803F08DF80346002B01D082
:10420800FFF70CFE4FF48053BB6007F10803194613
:104218000C4803F02FFA0346002B01D0FFF7FEFDF0
:1042280000233B6000237B603B461946054803F0AA
:1042380057FC0346002B01D0FFF7F0FD00BF1837ED
:10424800BD4680BDB001002080B586B000AF07F143
:10425800080300221A605A609A60DA603B4600221E
:104268001A605A601D4B1E4A1A601C4B42F2CF025C
:104278005A601A4B00229A60184B0922DA60174BD1
:1042880000221A61154B00229A61144803F042F883
:104298000346002B01D0FFF7C1FD4FF48053BB60EC
:1042A80007F1080319460D4803F0E4F90346002B0B
:1042B80001D0FFF7B3FD00233B6000237B603B4642
:1042C8001946064803F00CFC0346002B01D0FFF703
:1042D800A5FD00BF1837BD4680BD00BFF80100200E
:1042E8000008004080B584B000AF78607B681B6828
:1042F800B3F1804F16D10023FB601A4B1B6C194A8F
:1043080043F001031364174B1B6C03F00103FB60BC
:10431800FB68002200211C2000F001FA1C2000F09C
:104328001AFA1AE07B681B680F4A934215D10023DA
:10433800BB600C4B1B6C0B4A43F004031364094B22
:104348001B6C03F00403BB60BB68002200211E2025
:1043580000F0E5F91E2000F0FEF900BF1037BD4659
:1043680080BD00BF003802400008004080B483B020
:1043780000AF0346FB71FB791B09DBB21A469200BA
:1043880013445B00DAB2FB7903F00F03DBB213448A
:10439800DBB218460C37BD465DF8047B7047000059
:1043A80080B483B000AF0346FB71FB790D4AA2FBD2
:1043B8000323DB08DBB21B0158B2FA79094BA3FBD4
:1043C8000213D9080B469B000B445B00D31ADBB2DF
:1043D8005BB203435BB2DBB218460C37BD465DF8EF
:1043E800047B7047CDCCCCCCDFF834D0FFF7CEFEC1
:1043F8000C480D490D4A002302E0D458C450043338
:10440800C4188C42F9D30A4A0A4C002301E013600D
:104418000432A242FBD303F0D3FCFEF7C5F9704780
:1044280000000220000000202C000020B8C0000876
:104438002C00002044020020FEE7000080B500AFF9
:104448000E4B1B680D4A43F4007313600B4B1B683B
:104458000A4A43F480631360084B1B68074A43F415
:1044680080731360032000F04FF90F2000F008F864
:10447800FFF720FE0023184680BD00BF003C024025
:1044880080B582B000AF7860124B1A68124B1B7867
:1044980019464FF47A73B3FBF1F3B2FBF3F3184602
:1044A80000F067F90346002B01D001230EE07B687A
:1044B8000F2B0AD8002279684FF0FF3000F02FF94F
:1044C800064A7B681360002300E00123184608377A
:1044D800BD4680BD200000202800002024000020C8
:1044E80080B400AF064B1B781A46064B1B68134472
:1044F800044A136000BFBD465DF8047B704700BFE7
:10450800280000204002002080B400AF034B1B6845
:104518001846BD465DF8047B704700BF4002002086
:1045280080B584B000AF7860FFF7EEFFB8607B68B5
:10453800FB60FB68B3F1FF3F05D00A4B1B781A46B6
:10454800FB681344FB6000BFFFF7DEFF0246BB6851
:10455800D31AFA689A42F7D800BF00BF1037BD4691
:1045680080BD00BF2800002080B485B000AF78600F
:104578007B6803F00703FB600C4BDB68BB60BA6821
:104588004FF6FF031340BB60FB681A02BB68134376
:1045980043F0BF6343F40033BB60044ABB68D36095
:1045A80000BF1437BD465DF8047B704700ED00E09E
:1045B80080B400AF044BDB681B0A03F007031846FE
:1045C800BD465DF8047B704700ED00E080B483B021
:1045D80000AF0346FB7197F90730002B0BDBFB7923
:1045E80003F01F02074997F907305B09012000FA19
:1045F80002F241F8232000BF0C37BD465DF8047B6A
:10460800704700BF00E100E080B483B000AF03460C
:104618003960FB7197F90730002B0ADB3B68DAB287
:104628000C4997F907301201D2B20B4483F80023E2
:104638000AE03B68DAB20849FB7903F00F03043B50
:104648001201D2B20B441A7600BF0C37BD465DF892
:10465800047B704700E100E000ED00E080B489B021
:1046680000AFF860B9607A60FB6803F00703FB618C
:10467800FB69C3F10703042B28BF0423BB61FB6953
:104688000433062B02D9FB69033B00E000237B615E
:104698004FF0FF32BB6902FA03F3DA43BB681A40F2
:1046A8007B699A404FF0FF317B6901FA03F3D943E4
:1046B8007B680B40134318462437BD465DF8047BDE
:1046C8007047000080B582B000AF78607B68013B1E
:1046D800B3F1807F01D301230FE00A4A7B68013BD5
:1046E80053600F214FF0FF30FFF78EFF054B00227C
:1046F8009A60044B07221A60002318460837BD4603
:1047080080BD00BF10E000E080B582B000AF7860E7
:104718007868FFF729FF00BF0837BD4680BD80B520
:1047280086B000AF0346B9607A60FB7300237B61F3
:10473800FFF73EFF78617A68B9687869FFF78EFFFE
:10474800024697F90F3011461846FFF75DFF00BF84
:104758001837BD4680BD80B582B000AF0346FB71F7
:1047680097F907301846FFF731FF00BF0837BD46F5
:1047780080BD80B582B000AF78607868FFF7A2FF8F
:10478800034618460837BD4680BD000080B489B08E
:1047980000AF7860396000237B6100233B61002310
:1047A800BB610023FB616BE10122FB6902FA03F3A1
:1047B8007B613B681B687A6913403B613A697B6996
:1047C8009A4240F05A813B685B6803F00303012B6F
:1047D80005D03B685B6803F00303022B30D17B688C
:1047E8009B68BB61FB695B00032202FA03F3DB43AE
:1047F800BA691340BB613B68DA68FB695B0002FA7F
:1048080003F3BA691343BB617B68BA699A607B6832
:104818005B68BB610122FB6902FA03F3DB43BA69F7
:104828001340BB613B685B681B0903F00102FB692D
:1048380002FA03F3BA691343BB617B68BA695A6029
:104848003B685B6803F00303032B17D07B68DB68C6
:10485800BB61FB695B00032202FA03F3DB43BA691D
:104868001340BB613B689A68FB695B0002FA03F37B
:10487800BA691343BB617B68BA69DA603B685B68F5
:1048880003F00303022B23D1FB69DA087B680832A3
:1048980053F82230BB61FB6903F007039B000F222A
:1048A80002FA03F3DB43BA691340BB613B681A6938
:1048B800FB6903F007039B0002FA03F3BA69134389
:1048C800BB61FB69DA087B680832B96943F82210D2
:1048D8007B681B68BB61FB695B00032202FA03F378
:1048E800DB43BA691340BB613B685B6803F00302B2
:1048F800FB695B0002FA03F3BA691343BB617B6887
:10490800BA691A603B685B6803F44033002B00F017
:10491800B4800023FB60604B5B6C5F4A43F48043C8
:1049280053645D4B5B6C03F48043FB60FB685B4A3C
:10493800FB699B08023352F82330BB61FB6903F023
:1049480003039B000F2202FA03F3DB43BA69134007
:10495800BB617B68524A93422BD07B68514A934291
:1049680025D07B68504A93421FD07B684F4A9342B8
:1049780019D07B684E4A934213D07B684D4A9342C4
:104988000DD07B684C4A934207D07B684B4A9342D0
:1049980001D107230EE008230CE006230AE00523D3
:1049A80008E0042306E0032304E0022302E00123D5
:1049B80000E00023FA6902F0030292009340BA690A
:1049C8001343BB613549FB699B080233BA6941F857
:1049D80023203B4B9B68BB613B69DB43BA691340AF
:1049E800BB613B685B6803F48013002B03D0BA6992
:1049F8003B691343BB61324ABB699360304BDB6848
:104A0800BB613B69DB43BA691340BB613B685B68C8
:104A180003F40013002B03D0BA693B691343BB614D
:104A2800274ABB69D360264B5B68BB613B69DB43A4
:104A3800BA691340BB613B685B6803F40033002B21
:104A480003D0BA693B691343BB611D4ABB69536014
:104A58001B4B1B68BB613B69DB43BA691340BB61F5
:104A68003B685B6803F48033002B03D0BA693B6969
:104A78001343BB61124ABB691360FB690133FB61D5
:104A8800FB690F2B7FF690AE00BF00BF2437BD46F1
:104A98005DF8047B704700BF0038024000380140D1
:104AA800000002400004024000080240000C0240DE
:104AB800001002400014024000180240001C02408E
:104AC800003C014080B483B000AF78600B467B8027
:104AD80013467B707B78002B03D07A887B689A61B9
:104AE80003E07B881A047B689A6100BF0C37BD46D7
:104AF8005DF8047B704780B485B000AF78600B46E2
:104B08007B807B685B69FB607A88FB6813401A04CA
:104B1800FB68D9437B880B401A437B689A6100BFC6
:104B28001437BD465DF8047B7047000080B584B03B
:104B380000AF78607B68002B01D101232BE17B68F3
:104B480093F83D30DBB2002B06D17B68002283F856
:104B58003C207868FCF7B4FE7B68242283F83D206B
:104B68007B681B681A687B681B6822F001021A6060
:104B78007B681B681A687B681B6842F400421A60ED
:104B88007B681B681A687B681B6822F400421A60FD
:104B980001F08EFDF8607B685B68814A934207D814
:104BA800FB68804A934294BF01230023DBB206E0EE
:104BB800FB687D4A934294BF01230023DBB2002B9C
:104BC80001D00123E7E0FB68784AA2FB03239B0C92
:104BD800BB607B681B685B6823F03F017B681B68D0
:104BE800BA680A435A607B681B681B6A23F03F0156
:104BF8007B685B686A4A934202D8BB68013309E064
:104C0800BB684FF4967202FB03F3694AA2FB0323C5
:104C18009B0901337A6812680B4313627B681B682F
:104C2800DB6923F44F4222F0FF027B685B685C4932
:104C38008B4219D8FB68591E7B685B685B00B1FB27
:104C4800F3F3591C40F6FC730B40002B0AD0FB68A9
:104C5800591E7B685B685B00B1FBF3F30133C3F358
:104C68000B0351E004234FE07B689B68002B11D1B4
:104C7800FB68581E7B6859680B465B000B44B0FB09
:104C8800F3F30133C3F30B03002B0CBF0123002301
:104C9800DBB212E0FB68581E7B6859680B469B0024
:104CA8000B4499000B44B0FBF3F30133C3F30B033C
:104CB800002B0CBF01230023DBB2002B01D0012302
:104CC80022E07B689B68002B0ED1FB68581E7B682E
:104CD80059680B465B000B44B0FBF3F30133C3F395
:104CE8000B0343F400430FE0FB68581E7B685968C8
:104CF8000B469B000B4499000B44B0FBF3F30133C4
:104D0800C3F30B0343F44043796809681343CB6149
:104D18007B681B681B6823F0C0017B68DA697B68C5
:104D28001B6A1A437B681B680A431A607B681B6806
:104D38009B6823F4034323F0FF037A6811697A68B8
:104D4800D26811437A6812680B4393607B681B68CA
:104D5800DB6823F0FF017B685A697B689B691A430B
:104D68007B681B680A43DA607B681B681A687B6883
:104D78001B6842F001021A607B6800221A647B6893
:104D8800202283F83D207B6800221A637B6800227A
:104D980083F83E20002318461037BD4680BD00BF6B
:104DA800A08601007F841E00FF083D0083DE1B43B0
:104DB800D34D621080B588B002AFF860084611463E
:104DC8001A4603467B810B463B811346FB80FFF75F
:104DD8009BFB7861FB6893F83D30DBB2202B40F0F9
:104DE800D9807B690093192301226D49F86800F086
:104DF800B9FD0346002B01D00223CCE0FB6893F8F1
:104E08003C30012B01D10223C5E0FB68012283F865
:104E18003C20FB681B681B6803F00103012B07D0CB
:104E2800FB681B681A68FB681B6842F001021A607D
:104E3800FB681B681A68FB681B6822F400621A602A
:104E4800FB68212283F83D20FB68402283F83E203E
:104E5800FB6800221A64FB683A6A5A62FB68BA8CDB
:104E68005A85FB685B8D9AB2FB681A85FB684D4AC8
:104E7800DA62F8883A8979897B690193BB6A009379
:104E88000346F86800F0F0FB0346002B52D00123DC
:104E980081E07A69B96AF86800F07EFE0346002B63
:104EA8000DD0FB681B6C042B07D1FB681B681A68C4
:104EB800FB681B6842F400721A6001236BE0FB6810
:104EC8005B6A1A78FB681B681A61FB685B6A5A1C84
:104ED800FB685A62FB681B8D013B9AB2FB681A8516
:104EE800FB685B8D9BB2013B9AB2FB685A85FB68F5
:104EF8001B685B6903F00403042B1BD1FB681B8D43
:104F0800002B17D0FB685B6A1A78FB681B681A616C
:104F1800FB685B6A5A1CFB685A62FB681B8D013B85
:104F28009AB2FB681A85FB685B8D9BB2013B9AB20B
:104F3800FB685A85FB681B8D002BAAD17A69B96A70
:104F4800F86800F071FE0346002B0DD0FB681B6C5F
:104F5800042B07D1FB681B681A68FB681B6842F4BE
:104F680000721A60012316E0FB681B681A68FB6868
:104F78001B6842F400721A60FB68202283F83D2007
:104F8800FB68002283F83E20FB68002283F83C205F
:104F9800002300E0022318461837BD4680BD00BF35
:104FA800020010000000FFFF80B58CB002AFF8606F
:104FB800084611461A4603467B810B463B81134639
:104FC800FB80FFF7A1FA7862FB6893F83D30DBB20B
:104FD800202B40F014827B6A0093192301227B491D
:104FE800F86800F0BFFC0346002B01D0022307E25B
:104FF800FB6893F83C30012B01D1022300E2FB68E7
:10500800012283F83C20FB681B681B6803F001033E
:10501800012B07D0FB681B681A68FB681B6842F005
:1050280001021A60FB681B681A68FB681B6822F497
:1050380000621A60FB68222283F83D20FB68402248
:1050480083F83E20FB6800221A64FB683A6B5A62B8
:10505800FB68BA8E5A85FB685B8D9AB2FB681A8525
:10506800FB685B4ADA62F8883A8979897B6A019336
:10507800BB6B00930346F86800F08CFB0346002BDB
:1050880001D00123BCE1FB681B8D002B13D1002349
:105098003B62FB681B685B693B62FB681B689B693A
:1050A8003B623B6AFB681B681A68FB681B6842F432
:1050B80000721A6090E1FB681B8D012B1BD1FB6805
:1050C8001B681A68FB681B6822F480621A60002358
:1050D800FB61FB681B685B69FB61FB681B689B697C
:1050E800FB61FB69FB681B681A68FB681B6842F474
:1050F80000721A6070E1FB681B8D022B1BD1FB68E4
:105108001B681A68FB681B6822F480621A60FB68D7
:105118001B681A68FB681B6842F400621A60002367
:10512800BB61FB681B685B69BB61FB681B689B69AB
:10513800BB61BB6950E100237B61FB681B685B694D
:105148007B61FB681B689B697B617B6944E1FB6849
:105158001B8D032B00F2F180FB681B8D012B23D1E3
:105168007A6AB96BF86800F0A7FD0346002B01D0F6
:10517800012345E1FB681B681A69FB685B6AD2B2C8
:105188001A70FB685B6A5A1CFB685A62FB681B8DC5
:10519800013B9AB2FB681A85FB685B8D9BB2013BA9
:1051A8009AB2FB685A8517E1FB681B8D022B4ED11A
:1051B8007B6A0093BB6B00220649F86800F0D2FBBB
:1051C8000346002B08D001231AE100BF020010009B
:1051D8000000FFFF04000100FB681B681A68FB68F9
:1051E8001B6842F400721A60FB681B681A69FB6846
:1051F8005B6AD2B21A70FB685B6A5A1CFB685A6217
:10520800FB681B8D013B9AB2FB681A85FB685B8DB6
:105218009BB2013B9AB2FB685A85FB681B681A6906
:10522800FB685B6AD2B21A70FB685B6A5A1CFB683F
:105238005A62FB681B8D013B9AB2FB681A85FB68B2
:105248005B8D9BB2013B9AB2FB685A85C4E07B6ACE
:105258000093BB6B00226C49F86800F083FB03469F
:10526800002B01D00123CBE0FB681B681A68FB68A0
:105278001B6822F480621A60FB681B681A69FB6865
:105288005B6AD2B21A70FB685B6A5A1CFB685A6286
:10529800FB681B8D013B9AB2FB681A85FB685B8D26
:1052A8009BB2013B9AB2FB685A857B6A0093BB6B41
:1052B80000225549F86800F055FB0346002B01D041
:1052C80001239DE0FB681B681A68FB681B6842F4B1
:1052D80000721A60FB681B681A69FB685B6AD2B2C5
:1052E8001A70FB685B6A5A1CFB685A62FB681B8D64
:1052F800013B9AB2FB681A85FB685B8D9BB2013B48
:105308009AB2FB685A85FB681B681A69FB685B6A76
:10531800D2B21A70FB685B6A5A1CFB685A62FB6857
:105328001B8D013B9AB2FB681A85FB685B8D9BB2AB
:10533800013B9AB2FB685A854EE07A6AB96BF86805
:1053480000F0BAFC0346002B01D0012358E0FB68AB
:105358001B681A69FB685B6AD2B21A70FB685B6AE1
:105368005A1CFB685A62FB681B8D013B9AB2FB68AA
:105378001A85FB685B8D9BB2013B9AB2FB685A8524
:10538800FB681B685B6903F00403042B24D1FB68EA
:105398001B8D032B07D1FB681B681A68FB681B6809
:1053A80022F480621A60FB681B681A69FB685B6AF2
:1053B800D2B21A70FB685B6A5A1CFB685A62FB68B7
:1053C8001B8D013B9AB2FB681A85FB685B8D9BB20B
:1053D800013B9AB2FB685A85FB681B8D002B7FF452
:1053E800B6AEFB68202283F83D20FB68002283F8D4
:1053F8003E20FB68002283F83C20002300E00223C3
:1054080018462837BD4680BD0400010080B58AB023
:1054180002AFF8607A603B600B467B81FFF774F857
:10542800F8610023BB61FB6893F83D30DBB2202BA9
:1054380040F01181FB690093192301228849F8681B
:1054480000F090FA0346002B01D0022304E1FB6828
:1054580093F83C30012B01D10223FDE0FB680122C7
:1054680083F83C20FB681B681B6803F00103012BD1
:1054780007D0FB681B681A68FB681B6842F00102CA
:105488001A60FB681B681A68FB681B6822F40062D4
:105498001A60FB68242283F83D20FB6800221A6406
:1054A800FB68704ADA62FB681B681A68FB681B684D
:1054B80042F480721A60FB6900933B6800224FF047
:1054C8000111F86800F04EFA0346002B0DD0FB6876
:1054D8001B681B6803F48073B3F5807F03D1FB68F6
:1054E8004FF400721A640323B6E07B89DBB21A46D4
:1054F800FB681B6802F0FE021A61FFF705F8F86105
:10550800FB681B685B6903F00203022B0CBF0123D5
:105518000023DBB2FB75FB681B685B6903F48063DF
:10552800B3F5806F0CBF01230023DBB2BB7525E008
:10553800FEF7EAFF0246FB69D31A3A689A4202D399
:105548003B68002B03D1FB68A02283F83D20FB6851
:105558001B685B6903F00203022B0CBF01230023C5
:10556800DBB2FB75FB681B685B6903F48063B3F50A
:10557800806F0CBF01230023DBB2BB75FB6893F877
:105588003D30DBB2A02B05D0FB7D002B02D1BB7DCB
:10559800002BCDD0FB68202283F83D20FB681B68D8
:1055A8005B6903F00203022B29D1FB681B681A68A8
:1055B800FB681B6842F400721A6000233B61FB68B9
:1055C8001B685B693B61FB681B689B693B613B69C6
:1055D800FB690093192301222149F86800F0C2F9F8
:1055E8000346002B01D0012336E0FB68202283F814
:1055F8003D20FB68002283F83C2000232CE0FB6858
:105608001B681A68FB681B6842F400721A60FB6822
:105618001B686FF480625A61FB69009319230122A9
:105628000F49F86800F09EF90346002B01D00123CA
:1056380012E0BB690133BB61BA697B689A42FFF427
:1056480032AFFB68202283F83D20FB68002283F8F4
:105658003C20012300E0022318462037BD4680BDC8
:10566800020010000000FFFF80B588B002AFF860AC
:10567800084611461A4603467B810B463B81134672
:10568800FB80FB681B681A68FB681B6842F4807221
:105698001A607B6A00933B6A00224FF00111F86898
:1056A80000F060F90346002B0DD0FB681B681B68EF
:1056B80003F48073B3F5807F03D1FB684FF4007265
:1056C8001A6403235FE07B89DBB21A46FB681B6818
:1056D80002F0FE021A617B6A3A6A2D49F86800F006
:1056E800BBF90346002B01D001234CE000237B616A
:1056F800FB681B685B697B61FB681B689B697B6156
:105708007B697A6A396AF86800F046FA0346002B22
:105718000DD0FB681B6C042B07D1FB681B681A684B
:10572800FB681B6842F400721A6001232BE0FB88B7
:10573800012B05D13B89DAB2FB681B681A6121E0AD
:105748003B891B0A9BB2DAB2FB681B681A617A6A4A
:10575800396AF86800F020FA0346002B0DD0FB6880
:105768001B6C042B07D1FB681B681A68FB681B6855
:1057780042F400721A60012305E03B89DAB2FB6843
:105788001B681A61002318461837BD4680BD00BF44
:105798000200010080B588B002AFF86008461146E3
:1057A8001A4603467B810B463B811346FB80FB6808
:1057B8001B681A68FB681B6842F480621A60FB6801
:1057C8001B681A68FB681B6842F480721A607B6A5F
:1057D80000933B6A00224FF00111F86800F0C2F80C
:1057E8000346002B0DD0FB681B681B6803F480730D
:1057F800B3F5807F03D1FB684FF400721A6403236A
:10580800AAE07B89DBB21A46FB681B6802F0FE023D
:105818001A617B6A3A6A5249F86800F01DF9034632
:10582800002B01D0012397E000237B61FB681B68F4
:105838005B697B61FB681B689B697B617B697A6A32
:10584800396AF86800F0A8F90346002B0DD0FB6808
:105858001B6C042B07D1FB681B681A68FB681B6864
:1058680042F400721A60012376E0FB88012B05D10F
:105878003B89DAB2FB681B681A6121E03B891B0A85
:105888009BB2DAB2FB681B681A617A6A396AF868EF
:1058980000F082F90346002B0DD0FB681B6C042B2B
:1058A80007D1FB681B681A68FB681B6842F4007222
:1058B8001A60012350E03B89DAB2FB681B681A6161
:1058C8007A6A396AF86800F067F90346002B0DD048
:1058D800FB681B6C042B07D1FB681B681A68FB6804
:1058E8001B6842F400721A60012335E0FB681B68EC
:1058F8001A68FB681B6842F480721A607B6A00931E
:105908003B6A00224FF00111F86800F02BF80346BB
:10591800002B0DD0FB681B681B6803F48073B3F57C
:10592800807F03D1FB684FF400721A64032313E0ED
:105938007B89DBB243F00103DAB2FB681B681A61AA
:105948007B6A3A6A0649F86800F086F80346002B35
:1059580001D0012300E0002318461837BD4680BD5A
:105968000200010080B584B000AFF860B9603B6008
:105978001346FB7148E03B68B3F1FF3F44D0FEF7A4
:10598800C3FD0246BB69D31A3A689A4202D33B6800
:10599800002B39D1BB681B0CDBB2012B0DD1FB6886
:1059A8001B685B69DA43BB6813409BB2002B0CBFD2
:1059B80001230023DBB21A460CE0FB681B689B69D5
:1059C800DA43BB6813409BB2002B0CBF01230023B2
:1059D800DBB21A46FB799A4216D1FB6800221A6399
:1059E800FB68202283F83D20FB68002283F83E20D4
:1059F800FB681B6C43F02002FB681A64FB680022FA
:105A080083F83C20012323E0BB681B0CDBB2012B8D
:105A18000DD1FB681B685B69DA43BB6813409BB216
:105A2800002B0CBF01230023DBB21A460CE0FB68F5
:105A38001B689B69DA43BB6813409BB2002B0CBF01
:105A480001230023DBB21A46FB799A4293D0002344
:105A580018461037BD4680BD80B584B000AFF860E9
:105A6800B9607A603B6071E0FB681B685B6903F4AE
:105A78008063B3F5806F23D1FB681B681A68FB68E5
:105A88001B6842F400721A60FB681B686FF480623E
:105A98005A61FB6800221A63FB68202283F83D20C4
:105AA800FB68002283F83E20FB681B6C43F004026D
:105AB800FB681A64FB68002283F83C20012367E036
:105AC8007B68B3F1FF3F41D0FEF71EFD02463B68FD
